:020000040000FA
:0600000079EF0FF0120081
:0610000079EF0FF0120071
:021006001200D6
:061008001CEF08F01200CD
:02100E00C250CE
:08101000020B01E0010E1200C9
:0610180075EF08F0120064
:02101E000200CE
:10102000971F0000A500000008000000781F0000C6
:08103000600000001F00000039
:08103800DACFE4FFE2CFDAFF9A
:10104000E9CFE4FFEACFE4FFF6CFE4FFF7CFE4FF18
:10105000F5CFE4FFF3CFE4FFF4CFE4FFFACFE4FFF2
:1010600000EE00F0100EE80403E3EECFE4FFFBD740
:1010700000EE10F0050EE80403E3EECFE4FFFBD72B
:10108000E652F250200B0DE0F250040B0AE0F2940D
:10109000D50E70EC0CF000016A2B000E6B236C2354
:1010A0006D23E55200EE14F0050EE80403E3E5CFEE
:1010B000EDFFFBD700EE0FF0100EE80403E3E5CFE1
:1010C000EDFFFBD7E5CFFAFFE5CFF4FFE5CFF3FF68
:1010D000E5CFF5FFE5CFF7FFE5CFF6FFE5CFEAFF78
:1010E000E5CFE9FFE5CFDAFF1100D8CFE4FFE0CF8D
:1010F000E4FFE46EDACFE4FFE2CFDAFFE9CFE4FF0A
:10110000EACFE4FFF6CFE4FFF7CFE4FFF5CFE4FF4B
:10111000F3CFE4FFF4CFE4FFFACFE4FF00EE00F0FA
:10112000100EE80403E3EECFE4FFFBD700EE10F06F
:10113000050EE80403E3EECFE4FFFBD7E6529D5033
:10114000020B01E18ED09E50020B01E18AD09E92EB
:1011500000016929156E1F0E166E16C00CF015C021
:1011600007F095EC0FF003C069F00001685101E150
:1011700013D1000168A10CD0000160510001695D2C
:1011800002E2010E01D0000EE8B08B80E8A08B9047
:10119000000168A30CD0000161510001695D02E209
:1011A000010E01D0000EE8B08B82E8A08B92000106
:1011B00068A50CD0000162510001695D02E2010ED8
:1011C00001D0000EE8B08B84E8A08B94000168A7E2
:1011D0000CD0000163510001695D02E2010E01D0F3
:1011E000000EE8B08B86E8A08B96000168A90CD0B1
:1011F000000164510001695D02E2010E01D0000EA0
:10120000E8B08B88E8A08B98000168AB0CD0000197
:1012100065510001695D02E2010E01D0000EE8B0E7
:101220008B8AE8A08B9A000168AD0CD00001665152
:101230000001695D02E2010E01D0000EE8B08B8C66
:10124000E8A08B9C000168AF0CD000016751000141
:10125000695D02E2010E01D0000EE8B08B8EE8A0BD
:101260008B9EA050020B62E0A150020B5FE0A192A6
:10127000D50EE66ED10EE66EB6EC0EF0E552E552F6
:1012800000016E5129E080B61FD06FC015F070C00C
:1012900016F071C017F072C018F0B80E15260B0EBC
:1012A0001622000E1722000E182200016A51155C4A
:1012B00000016B51165800016C51175800016D5117
:1012C000185801E2FF0008D06AC06FF06BC070F0E0
:1012D0006CC071F06DC072F000017751781126E09A
:1012E0006AC004F06BC005F06CC006F06DC007F07A
:1012F00073C009F074C00AF075C00BF076C00CF032
:1013000014EC0EF000C015F001C016F002C017F08A
:1013100003C018F0155016101710181007E105D06B
:1013200078C0FAFF00017751F96EFADFF050080B30
:101330000FE0F050010B0CE0F09000017B517C11AC
:1013400007E005D07CC0FAFF00017B51F96EFADF9F
:10135000F050100B0FE0F050020B0CE0F092000187
:101360007D517E1107E005D07EC0FAFF00017D515E
:10137000F96EFADFF250080B0FE0F250010B0CE0AF
:10138000F290000179517A1107E005D07AC0FAFF96
:1013900000017951F96EFADFE55200EE14F0050E06
:1013A000E80403E3E5CFEDFFFBD700EE0FF0100EEE
:1013B000E80403E3E5CFEDFFFBD7E5CFFAFFE5CF88
:1013C000F4FFE5CFF3FFE5CFF5FFE5CFF7FFE5CF7E
:1013D000F6FFE5CFEAFFE5CFE9FFE5CFDAFFE5501D
:1013E000E5CFE0FFE5CFD8FF10006AC004F06BC086
:1013F00005F06CC006F06DC007F0120000000000A0
:1014000000000000000000000000000000000000DC
:1014100000000000000000000000000000000000CC
:1014200012000000000000000000000000000000AA
:1014300000000000000000000000120064DA3DDA45
:1014400010E0570EE66E87EC0FF0E552040EE66EE4
:10145000A3EC0FF0E552FD0EDB06FE0EF0E2DB061C
:10146000EED723D250DA29DA07E0DBDFFD0EDB0608
:10147000FE0EF9E2DB06F7D718D245DA1EDA0EE0E7
:101480003DDA3CDA3BDA6A0EE66E25EC0FF0E55207
:10149000FD0EDB06FE0EF2E2DB06F0D706D20F0EE3
:1014A00027D2050E25D2F9D9DBAC14D0010EDF52BC
:1014B00004E0DFCFF3FFFDD9FEE1E81C9416010E36
:1014C000DF5204E0DFCFF3FFF4D9FEE1E81C0001B6
:1014D00068170BD0DBAA09D0010EDF5204E0DFCF82
:1014E000F3FFE7D9FEE1E81C9316E552DED1D5D92A
:1014F000DBAC14D0010EDF5204E0DFCFF3FFD9D90B
:10150000FEE1E81C9416010EDF5204E0DFCFF3FF8A
:10151000D0D9FEE100016813D9D9EF6AE552C5D1EF
:10152000BCD9DBAC09D0010EDF5204E0DFCFF3FF02
:10153000C0D9FEE194120AD0DBAA08D0010EDF5216
:1015400004E0DFCFF3FFB5D9FEE19312FE0EDB50CE
:10155000250A14E0010A10E0670A0CE0010A08E01D
:10156000030A04E0010A0BE17E9809D07E9A07D0B5
:101570007E9C05D07E9E03D07F9401D07F96E5525D
:1015800094D1ABD9DBAE1ED0DB508B0A19E0010A37
:1015900014E00D0A0FE0010A0AE0030A05E0010A5F
:1015A00011E17E8894800ED07E8A94820BD07E8C4E
:1015B000948408D07E8E948605D07F84938802D050
:1015C0007F86938A72D169D9DBAC2AD0010EDF52B3
:1015D00004E0DFCFF3FF6DD9FEE10001681509E0FB
:1015E000FD0EDB501F0BE66E71D9E552E750EF6E32
:1015F0002FD0FD0EDB5009E0010EDF5204E0DFCFFB
:10160000F3FF57D9FEE18B1009D0010EDF5204E041
:10161000DFCFF3FF4ED9FEE1E81C8B148B6E18D0A0
:10162000DBAA16D0FD0EDB5009E0010EDF5204E00C
:10163000DFCFF3FF3ED9FEE18A1009D0010EDF5261
:1016400004E0DFCFF3FF35D9FEE1E81C8A148A6E8F
:10165000E5522BD122D9DBAC17D0010EDF5204E0CA
:10166000DFCFF3FF26D9FEE10001681503E02ED994
:10167000EF5023D08250DF5212E0DFCFF3FFE83289
:101680007F0BF306FCE10BD0DBAA0BD08150DF52BD
:1016900006E0DFCFF3FFE8327F0BF306FCE1010B3E
:1016A0000CD0DBA80FD08050DF5206E0DFCFF3FF75
:1016B000E8327F0BF306FCE1010B116AF36E11C0F7
:1016C000F4FF0FD0DF50080DF350E66E3CEC0FF046
:1016D000E552BAEC0FF007EC08F00009FCE1AEECC3
:1016E0000FF0E552E2D0000168511200D6D8DBAA13
:1016F00008D0010EDF5204E0DFCFF3FFDAD8FEE1BD
:101700007812E552D2D0C9D8DBAA09D0010EDF5237
:1017100004E0DFCFF3FFCDD8FEE1E81C7816E552F8
:10172000C4D0946A93680D0EC26EC16AAF0EC06ECB
:101730007E6A7F6A9F0EE66EEEEC0EF0E552F18453
:10174000200ECED8BC0EE66E0AEC0FF0E5529F924A
:10175000CD0EE66E38EC0EF0E552A292200EE66E4B
:10176000D10EE66EB6EC0EF0E552E552B7EC0FF096
:10177000D08EF28CF28EF19E120080A6010C000C2D
:10178000C2D8F90EDBCF77F0FA0EDBCF78F0FB0E84
:10179000DBCF10F0FC0EDBCF11F0FD0EDBCF12F033
:1017A000FE0EDBCF13F010501110121013100BE1CE
:1017B000010EF36EFB0EF3CFDBFFFC0EDB6AFD0EBA
:1017C000DB6AFE0EDB6AFB0EDBCF73F0FC0EDBCFB9
:1017D00074F0FD0EDBCF75F0FE0EDBCF76F065D03A
:1017E0000001776B786B12008ED8FD0EDBCF79F09D
:1017F000FE0EDBCF7AF0E66E99EC0EF0E552F1903A
:10180000798653D00001796B7A6B7996F296F18ED6
:10181000120063D8DB50020A12E0030A22E1FB0E39
:10182000DBCF7BF0FC0EDBCF7CF0FD0EDB50BF0B83
:10183000FE0BE66E79EC0EF0E552410E0FD0FB0E7A
:10184000DBCF7DF0FC0EDBCF7EF0FD0EDB50BF0B5F
:10185000FE0BE66E59EC0EF0E552420EE66E60DECF
:10186000E55223D03AD8DB50020A07E0030A09E127
:1018700000017B6B7C6BF09604D000017D6B7E6B6E
:10188000F09813D00001010E6E6F6F6B706B716B6F
:10189000726B120000016E6B120035D8E652FE0E1C
:1018A000DB500F0BDF6EFE0E1200E552E7CFD9FFC3
:1018B0001200E846FE0BF3061200D950FD0FE96E48
:1018C000FF0EDA20EA6EEE50ED101200DF50EA6AE9
:1018D000600FE96E000EEA22120015D8FE0E12000B
:1018E000E66ED10EE66ED2EC0EF0E552E552120035
:1018F000E66EE66AA3DDE552E5521200E66A25ECE3
:101900000FF0E5521200D9CFE6FFE1CFD9FF120068
:10191000D9CFE6FFE1CFD9FF060EE126840EE66EB1
:101920002AEC0BF0E552F4CF11F00001A751E96E5B
:10193000EA6AD890E936EA367F0EE926000EEA22F6
:10194000F3CFEEFF11C0EDFF1DD9EE6AED6A050E73
:10195000DB6A070EF2D816E2050EEA6ADB34FE0BEC
:10196000EA36E96E7F0EE926000EEA22EECF10F08D
:10197000EFCF11F007D91050EE261150ED22050ED1
:10198000DB2AE7D7FFD8E0D80B6E0C6A10C006F050
:1019900011C007F053EC0FF006C010F007C011F0B3
:1019A0000001F0D806C0EEFF11C0EDFFA85113E012
:1019B000A729E76E050EE7CFDBFF070E0001A7257D
:1019C000BCD81CE2CFD81250105C1350115816E34B
:1019D000050EDB2AF2D7A729E76E050EE7CFDBFF5E
:1019E000070E0001A725A9D809E2BCD81050125C47
:1019F0001150135803E2050EDB2AF2D7070E00013F
:101A0000A725F36E050EDB50F35C03E1010EA86F12
:101A10000ED0A8050CE1F5EC09F004C0A9F005C052
:101A2000AAF006C0ABF007C0ACF00001A86BA72974
:101A3000106E070E116E0C6E10C007F095EC0FF0D3
:101A400003C0A7F0060EE15C02E2E16AE552E16E36
:101A5000E552E7CFD9FF1200D9CFE6FFE1CFD9FF9A
:101A6000050EE12691EC0BF0470EE66E77EC0AF0DE
:101A7000E552840EE66EC1EC0AF0E552100EE66EF9
:101A8000190EE66E140EE66EE66AE66AE66AC0ECC9
:101A90000BF0106E060EE15E105043D8D9CFE9FF6F
:101AA000DACFEAFFEE500001A91908E1EE50AA19B9
:101AB00005E1EE50AB1902E1EE50AC19EFE031D880
:101AC000040EDB6A47D805E2040EDBCFE6FF19D827
:101AD000F9D7040EDB6A3ED8E1E2040EDBCFE6FF65
:101AE0001F0EE552D880E754E66E0BD8F4D7E96EA6
:101AF000EA6AD890E936EA368D0EE926000EEA2227
:101B00001200470EE66EE3EC0AF0E552E552010ED4
:101B1000E66EE66A1EEC0AF0E552E552040EDB2A98
:101B20001200A9C0DFFF010EAAC0DBFF020EABC08E
:101B3000DBFF030EACC0DBFF1200F36E050EDBCF44
:101B4000F4FFF350F45C1200EECF10F0EFCF11F081
:101B5000070E1200200EF36E040EDBCFF4FFF350DD
:101B6000F45C12000FD8F0DF146E0C6E050EDBCFA4
:101B700007F095EC0FF00350BADFEECF12F0EFCF85
:0A1B800013F01200A75177EF0DF0EB
:061B8A001E0EF66E100EA7
:101B9000F76E000EF86E00010900F550A06F090005
:101BA000F550A16F03E1A06701D03DD00900F550C9
:101BB0009B6F0900F5509C6F0900F5509D6F09005F
:101BC0000900F550E96E0900F550EA6E09000900B8
:101BD0000900F5509E6F0900F5509F6F090009003C
:101BE000F6CFA2F0F7CFA3F0F8CFA4F09BC0F6FF9A
:101BF0009CC0F7FF9DC0F8FF00019E5302E19F5378
:101C000007E00900F550EE6E9E07F8E29F07F9D74E
:101C1000A2C0F6FFA3C0F7FFA4C0F8FF0001A00711
:081C2000000EA15BBFD712000A
:081C2800036A026A016A006A06
:101C3000200EE76ED8900436053606360736003695
:101C40000136023603360950005C0A5001580B5029
:101C500002580C50035809E30950005E0A50015A1B
:101C60000B50025A0C50035A042AE72EE4D71200F4
:101C7000D9CFE6FFDACFE6FFE1CFD9FFE2CFDAFF37
:101C8000FD0EDB50360BB16EB36AB26AA192FD0E47
:101C9000DBAE02D0A08201D0A092DBA002D0B18E38
:101CA00001D0B19EB180E552E5CFDAFFE7CFD9FF91
:021CB000120020
:0E1CB200D9CFE6FFDACFE6FFE1CFD9FFE2CFD0
:101CC000DAFFF092FD0EDBA202D0F18801D0F1988C
:101CD0009484DBAC02D0F08E01D0F09EDBAE02D05B
:101CE000F08801D0F098E552E5CFDAFFE7CFD9FFD1
:021CF0001200E0
:0E1CF200D9CFE6FFDACFE6FFE1CFD9FFE2CF90
:101D0000DAFFF090FD0EDBA202D0F18A01D0F19A49
:101D10009482DBAC02D0F08C01D0F09CDBAE02D020
:101D2000F08601D0F096E552E5CFDAFFE7CFD9FF94
:021D300012009F
:0E1D3200D9CFE6FFDACFE6FFE1CFD9FFE2CF4F
:101D4000DAFFE6528150DF6EFD0EDBA002D0F18E8D
:101D500001D0F19EDBAE02D0F28601D0F296E552C0
:0C1D6000E552E5CFDAFFE7CFD9FF120013
:041D6C00D9CFE6FFE6
:101D7000DACFE6FFE1CFD9FFE2CFDAFFE652E65253
:101D8000FC0EDBCFDEFFDBCFDDFF010EDB50B36EE1
:101D9000DF50B26EE552E552E552E5CFDAFFE7CF0C
:041DA000D9FF120055
:0C1DA400D9CFE6FFDACFE6FFE1CFD9FF90
:101DB000E2CFDAFFE652E652FC0EDBCFDEFFDBCFEE
:101DC000DDFF010EDB50D76EDF50D66EE552E552D7
:0C1DD000E552E5CFDAFFE7CFD9FF1200A3
:041DDC00D9CFE6FF76
:101DE000DACFE6FFE1CFD9FFE2CFDAFFFD0EDB501D
:101DF0007F0BD56ED76AD66AF294FD0EDBAE02D0A9
:101E0000F28A01D0F29AD58EE552E5CFDAFFE7CF1C
:041E1000D9FF1200E4
:0C1E1400D9CFE6FFDACFE6FFE1CFD9FF1F
:101E2000E2CFDAFFFD0EDB50FB0BCA6ECC6A9E924E
:101E3000FD0EDBAE02D09D8201D09D92CA84E55298
:0A1E4000E5CFDAFFE7CFD9FF12006B
:061E4A00FF0EE3501A6ECA
:101E5000EF0E01D0F30EE76EE72E2CEF0FF00C0E15
:101E6000196EE76AE72E32EF0FF0192E31EF0FF0FF
:081E70001A2E2AEF0FF01200F8
:081E7800D9CFE6FFDACFE6FF47
:101E8000E1CFD9FFE2CFDAFFC30EC214106EFD0E10
:101E9000DB407F0B3C0B1010C26EE552E5CFDAFF42
:061EA000E7CFD9FF12009C
:0A1EA600036A026A100EE76ED8907E
:101EB00006360736023603360B50025C0C500358C8
:101EC00005E30B50025E0C50035A062AE72EF0D7AA
:021ED0001200FE
:0E1ED200000EF36E00EE00F0030E01D81200B9
:101EE000EA6002D0EE6AFCD7F350E9601200EE6AB5
:021EF000FCD71D
:0E1EF20011EE00F021EE00F0F86A0F9CC5EC36
:0E1F00000DF003EC08F02CEC0DF0FBD71200F6
:021F0E00FF0EC4
:101F1000E3501A6E1B0E00D001D0200EE76EE72EA4
:0A1F2000FED71A2EFAD700D01200E7
:061F2A00036A080EE76ED9
:101F3000D890073603360C50035C02E3036E072A81
:061F4000E72EF7D71200A6
:0A1F4600FF0EE350E84E1200000009
:0C1F500000D000D000D0E82EFAD712001C
:041F5C00C450136EEC
:0E1F6000126AC3501210F36E13C0F4FF120089
:021F6E00CD9014
:041F70009D9012002E
:041F7400C282120013
:081F7800000000000000000061
:101F80000000000000000100000000E80300000065
:071F9000000000000000004A
:081F9700F4010000000000004D
:00000001FF
