:020000040000FA
:0600000075EF0EF0120086
:0610000075EF0EF0120076
:021006001200D6
:061008001CEF08F01200CD
:02100E00C250CE
:08101000020B01E0010E1200C9
:0610180075EF08F0120064
:02101E000200CE
:101020008F1D00008900000002000000701D0000FC
:08103000600000001F00000039
:08103800DACFE4FFE2CFDAFF9A
:10104000E9CFE4FFEACFE4FFF6CFE4FFF7CFE4FF18
:10105000F5CFE4FFF3CFE4FFF4CFE4FFFACFE4FFF2
:1010600000EE00F0100EE80403E3EECFE4FFFBD740
:1010700000EE14F0040EE80403E3EECFE4FFFBD728
:10108000E652F250200B0DE0F250040B0AE0F2940D
:10109000D50E70EC0CF000016A2B000E6B236C2354
:1010A0006D23E55200EE17F0040EE80403E3E5CFEC
:1010B000EDFFFBD700EE0FF0100EE80403E3E5CFE1
:1010C000EDFFFBD7E5CFFAFFE5CFF4FFE5CFF3FF68
:1010D000E5CFF5FFE5CFF7FFE5CFF6FFE5CFEAFF78
:1010E000E5CFE9FFE5CFDAFF1100D8CFE4FFE0CF8D
:1010F000E4FFE46EDACFE4FFE2CFDAFFE9CFE4FF0A
:10110000EACFE4FFF6CFE4FFF7CFE4FFF5CFE4FF4B
:10111000F3CFE4FFF4CFE4FFFACFE4FF00EE00F0FA
:10112000100EE80403E3EECFE4FFFBD700EE14F06B
:10113000040EE80403E3EECFE4FFFBD7E6529D5034
:10114000020B01E18ED09E50020B01E18AD09E92EB
:1011500000016929106E1F0E116E11C00EF010C033
:1011600007F091EC0EF003C069F00001685101E155
:1011700013D1000168A10CD0000160510001695D2C
:1011800002E2010E01D0000EE8B08B80E8A08B9047
:10119000000168A30CD0000161510001695D02E209
:1011A000010E01D0000EE8B08B82E8A08B92000106
:1011B00068A50CD0000162510001695D02E2010ED8
:1011C00001D0000EE8B08B84E8A08B94000168A7E2
:1011D0000CD0000163510001695D02E2010E01D0F3
:1011E000000EE8B08B86E8A08B96000168A90CD0B1
:1011F000000164510001695D02E2010E01D0000EA0
:10120000E8B08B88E8A08B98000168AB0CD0000197
:1012100065510001695D02E2010E01D0000EE8B0E7
:101220008B8AE8A08B9A000168AD0CD00001665152
:101230000001695D02E2010E01D0000EE8B08B8C66
:10124000E8A08B9C000168AF0CD000016751000141
:10125000695D02E2010E01D0000EE8B08B8EE8A0BD
:101260008B9EA050020B62E0A150020B5FE0A192A6
:10127000D50EE66ED10EE66EC8EC0DF0E552E552E5
:1012800000016E5129E080B61FD06FC010F070C011
:1012900011F071C012F072C013F0B80E10260B0ED0
:1012A0001122000E1222000E132200016A51105C5E
:1012B00000016B51115800016C51125800016D5121
:1012C000135801E2FF0008D06AC06FF06BC070F0E5
:1012D0006CC071F06DC072F000017751781126E09A
:1012E0006AC004F06BC005F06CC006F06DC007F07A
:1012F00073C00BF074C00CF075C00DF076C00EF02A
:1013000026EC0DF000C010F001C011F002C012F088
:1013100003C013F0105011101210131007E105D084
:1013200078C0FAFF00017751F96EFADFF050080B30
:101330000FE0F050010B0CE0F09000017B517C11AC
:1013400007E005D07CC0FAFF00017B51F96EFADF9F
:10135000F050100B0FE0F050020B0CE0F092000187
:101360007D517E1107E005D07EC0FAFF00017D515E
:10137000F96EFADFF250080B0FE0F250010B0CE0AF
:10138000F290000179517A1107E005D07AC0FAFF96
:1013900000017951F96EFADFE55200EE17F0040E04
:1013A000E80403E3E5CFEDFFFBD700EE0FF0100EEE
:1013B000E80403E3E5CFEDFFFBD7E5CFFAFFE5CF88
:1013C000F4FFE5CFF3FFE5CFF5FFE5CFF7FFE5CF7E
:1013D000F6FFE5CFEAFFE5CFE9FFE5CFDAFFE5501D
:1013E000E5CFE0FFE5CFD8FF10006AC004F06BC086
:1013F00005F06CC006F06DC007F0120000000000A0
:1014000000000000000000000000000000000000DC
:1014100000000000000000000000000000000000CC
:1014200012000000000000000000000000000000AA
:1014300000000000000000000000120064DA3DDA45
:1014400010E0570EE66E83EC0EF0E552040EE66EE9
:101450009FEC0EF0E552FD0EDB06FE0EF0E2DB0621
:10146000EED723D250DA29DA07E0DBDFFD0EDB0608
:10147000FE0EF9E2DB06F7D718D245DA1EDA0EE0E7
:101480003DDA3CDA3BDA6A0EE66E37EC0EF0E552F6
:10149000FD0EDB06FE0EF2E2DB06F0D706D20F0EE3
:1014A00027D2050E25D2F9D9DBAC14D0010EDF52BC
:1014B00004E0DFCFF3FFFDD9FEE1E81C9416010E36
:1014C000DF5204E0DFCFF3FFF4D9FEE1E81C0001B6
:1014D00068170BD0DBAA09D0010EDF5204E0DFCF82
:1014E000F3FFE7D9FEE1E81C9316E552DED1D5D92A
:1014F000DBAC14D0010EDF5204E0DFCFF3FFD9D90B
:10150000FEE1E81C9416010EDF5204E0DFCFF3FF8A
:10151000D0D9FEE100016813D9D9EF6AE552C5D1EF
:10152000BCD9DBAC09D0010EDF5204E0DFCFF3FF02
:10153000C0D9FEE194120AD0DBAA08D0010EDF5216
:1015400004E0DFCFF3FFB5D9FEE19312FE0EDB50CE
:10155000250A14E0010A10E0670A0CE0010A08E01D
:10156000030A04E0010A0BE17E9809D07E9A07D0B5
:101570007E9C05D07E9E03D07F9401D07F96E5525D
:1015800094D1ABD9DBAE1ED0DB508B0A19E0010A37
:1015900014E00D0A0FE0010A0AE0030A05E0010A5F
:1015A00011E17E8894800ED07E8A94820BD07E8C4E
:1015B000948408D07E8E948605D07F84938802D050
:1015C0007F86938A72D169D9DBAC2AD0010EDF52B3
:1015D00004E0DFCFF3FF6DD9FEE10001681509E0FB
:1015E000FD0EDB501F0BE66E71D9E552E750EF6E32
:1015F0002FD0FD0EDB5009E0010EDF5204E0DFCFFB
:10160000F3FF57D9FEE18B1009D0010EDF5204E041
:10161000DFCFF3FF4ED9FEE1E81C8B148B6E18D0A0
:10162000DBAA16D0FD0EDB5009E0010EDF5204E00C
:10163000DFCFF3FF3ED9FEE18A1009D0010EDF5261
:1016400004E0DFCFF3FF35D9FEE1E81C8A148A6E8F
:10165000E5522BD122D9DBAC17D0010EDF5204E0CA
:10166000DFCFF3FF26D9FEE10001681503E02ED994
:10167000EF5023D08250DF5212E0DFCFF3FFE83289
:101680007F0BF306FCE10BD0DBAA0BD08150DF52BD
:1016900006E0DFCFF3FFE8327F0BF306FCE1010B3E
:1016A0000CD0DBA80FD08050DF5206E0DFCFF3FF75
:1016B000E8327F0BF306FCE1010B156AF36E15C0EF
:1016C000F4FF0FD0DF50080DF350E66E4EEC0EF035
:1016D000E552B6EC0EF007EC08F00009FCE1AAECCC
:1016E0000EF0E552E2D0000168511200D6D8DBAA14
:1016F00008D0010EDF5204E0DFCFF3FFDAD8FEE1BD
:101700007812E552D2D0C9D8DBAA09D0010EDF5237
:1017100004E0DFCFF3FFCDD8FEE1E81C7816E552F8
:10172000C4D0946A93680D0EC26EC16AAF0EC06ECB
:101730007E6A7F6A9F0EE66E00EC0EF0E552F18441
:10174000200ECED8BC0EE66E1CEC0EF0E5529F9239
:10175000CD0EE66E4AEC0DF0E552A292200EE66E3A
:10176000D10EE66EC8EC0DF0E552E552B3EC0EF08A
:10177000D08EF28CF28EF19E120080A6010C000C2D
:10178000C2D8F90EDBCF77F0FA0EDBCF78F0FB0E84
:10179000DBCF14F0FC0EDBCF15F0FD0EDBCF16F027
:1017A000FE0EDBCF17F014501510161017100BE1BA
:1017B000010EF36EFB0EF3CFDBFFFC0EDB6AFD0EBA
:1017C000DB6AFE0EDB6AFB0EDBCF73F0FC0EDBCFB9
:1017D00074F0FD0EDBCF75F0FE0EDBCF76F065D03A
:1017E0000001776B786B12008ED8FD0EDBCF79F09D
:1017F000FE0EDBCF7AF0E66EABEC0DF0E552F19029
:10180000798653D00001796B7A6B7996F296F18ED6
:10181000120063D8DB50020A12E0030A22E1FB0E39
:10182000DBCF7BF0FC0EDBCF7CF0FD0EDB50BF0B83
:10183000FE0BE66E8BEC0DF0E552410E0FD0FB0E69
:10184000DBCF7DF0FC0EDBCF7EF0FD0EDB50BF0B5F
:10185000FE0BE66E6BEC0DF0E552420EE66E60DEBE
:10186000E55223D03AD8DB50020A07E0030A09E127
:1018700000017B6B7C6BF09604D000017D6B7E6B6E
:10188000F09813D00001010E6E6F6F6B706B716B6F
:10189000726B120000016E6B120035D8E652FE0E1C
:1018A000DB500F0BDF6EFE0E1200E552E7CFD9FFC3
:1018B0001200E846FE0BF3061200D950FD0FE96E48
:1018C000FF0EDA20EA6EEE50ED101200DF50EA6AE9
:1018D000600FE96E000EEA22120015D8FE0E12000B
:1018E000E66ED10EE66EE4EC0DF0E552E552120024
:1018F000E66EE66AA3DDE552E5521200E66A37ECD1
:101900000EF0E5521200D9CFE6FFE1CFD9FF120069
:101910001E0EF66E100EF76E000EF86E0001090036
:10192000F550846F0900F550856F03E1846701D09D
:101930003DD00900F5507F6F0900F550806F090018
:10194000F550816F09000900F550E96E0900F55066
:10195000EA6E090009000900F550826F0900F55090
:10196000836F09000900F6CF86F0F7CF87F0F8CF34
:1019700088F07FC0F6FF80C0F7FF81C0F8FF00014C
:10198000825302E1835307E00900F550EE6E8207AF
:10199000F8E28307F9D786C0F6FF87C0F7FF88C053
:0E19A000F8FF00018407000E855BBFD7120020
:0219AE00D9CF8F
:1019B000E6FFE1CFD9FF040EE12691EC0BF0470ED4
:1019C000E66E53EC0AF0E55234D889C014F08AC0B0
:1019D00015F0166A176AD9CFE9FFDACFEAFFEE50A1
:1019E0001426EE501522EE501622EE50172214C087
:1019F000E6FF15C0E6FF16C0E6FF17C0E6FFF5ECF0
:101A000009F0E552E7CF17F0E552E7CF16F0E552BF
:101A1000E7CF15F0E552E7CF14F01450045C1550F1
:101A200005581650065817500758CFE302D88B7E3A
:101A3000CCD7F5EC09F004C0DEFF05C0DEFF06C020
:0C1A4000DEFF07C0DDFFDD52DD521200AA
:041A4C00036A026ABD
:101A5000016A006A200EE76ED89004360536063615
:101A6000073600360136023603360B50005C0C5048
:101A700001580D5002580E50035809E30B50005EF8
:101A80000C50015A0D50025A0E50035A042AE72EE8
:041A9000E4D7120085
:0C1A9400D9CFE6FFDACFE6FFE1CFD9FFA3
:101AA000E2CFDAFFFD0EDB50360BB16EB36AB26ADD
:101AB000A192FD0EDBAE02D0A08201D0A092DBA0ED
:101AC00002D0B18E01D0B19EB180E552E5CFDAFFF0
:061AD000E7CFD9FF120070
:0A1AD600D9CFE6FFDACFE6FFE1CF3B
:101AE000D9FFE2CFDAFFF092FD0EDBA202D0F1883F
:101AF00001D0F1989484DBAC02D0F08E01D0F09E3E
:101B0000DBAE02D0F08801D0F098E552E5CFDAFFE5
:061B1000E7CFD9FF12002F
:0A1B1600D9CFE6FFDACFE6FFE1CFFA
:101B2000D9FFE2CFDAFFF090FD0EDBA202D0F18AFE
:101B300001D0F19A9482DBAC02D0F08C01D0F09C01
:101B4000DBAE02D0F08601D0F096E552E5CFDAFFA9
:061B5000E7CFD9FF1200EF
:0A1B5600D9CFE6FFDACFE6FFE1CFBA
:101B6000D9FFE2CFDAFFE6528150DF6EFD0EDBA037
:101B700002D0F18E01D0F19EDBAE02D0F28601D010
:101B8000F296E552E552E5CFDAFFE7CFD9FF120032
:101B9000D9CFE6FFDACFE6FFE1CFD9FFE2CFDAFF18
:101BA000E652E652FC0EDBCFDEFFDBCFDDFF010E9F
:101BB000DB50B36EDF50B26EE552E552E552E5CF31
:081BC000DAFFE7CFD9FF1200A4
:081BC800D9CFE6FFDACFE6FFFA
:101BD000E1CFD9FFE2CFDAFFE652E652FC0EDBCFCF
:101BE000DEFFDBCFDDFF010EDB50D76EDF50D66EA0
:101BF000E552E552E552E5CFDAFFE7CFD9FF120013
:101C0000D9CFE6FFDACFE6FFE1CFD9FFE2CFDAFFA7
:101C1000FD0EDB507F0BD56ED76AD66AF294FD0EAF
:101C2000DBAE02D0F28A01D0F29AD58EE552E5CF32
:081C3000DAFFE7CFD9FF120033
:081C3800D9CFE6FFDACFE6FF89
:101C4000E1CFD9FFE2CFDAFFFD0EDB50FB0BCA6E0E
:101C5000CC6A9E92FD0EDBAE02D09D8201D09D9299
:0E1C6000CA84E552E5CFDAFFE7CFD9FF1200C4
:021C6E00FF0E67
:101C7000E350196EEF0E01D0F30EE76EE72E3EEF44
:101C80000EF00C0E186EE76AE72E44EF0EF0182ED9
:0C1C900043EF0EF0192E3CEF0EF0120096
:041C9C00D9CFE6FFB7
:101CA000DACFE6FFE1CFD9FFE2CFDAFFC30EC214ED
:101CB000146EFD0EDB407F0B3C0B1410C26EE55220
:0A1CC000E5CFDAFFE7CFD9FF1200ED
:061CCA00000EF36E00EEB7
:101CD00000F0030E01D81200EA6002D0EE6AFCD7D1
:0A1CE000F350E9601200EE6AFCD731
:061CEA0011EE00F021EEF6
:101CF00000F0F86A0A9C88EC0CF003EC08F0D7ECD2
:061D00000CF0FBD71200FD
:0A1D0600FF0EE350196E1B0E00D013
:101D100001D0200EE76EE72EFED7192EFAD700D09D
:021D20001200AF
:0E1D2200036A080EE76ED890073603360E509F
:0E1D3000035C02E3036E072AE72EF7D71200CA
:021D3E00FF0E96
:101D4000E350E84E1200000000D000D000D0E82E92
:041D5000FAD71200AC
:0C1D5400C450176E166AC3501610F36ED0
:061D600017C0F4FF1200A1
:061D6600CD909D901200DB
:041D6C00C28212001D
:101D70000000000000000000000000000000010062
:0F1D8000000000E8030000000000000000000069
:011D8F00F45F
:011D90000151
:00000001FF
