:020000040000FA
:06000000C5EF19F012002B
:06100000C5EF19F012001B
:021006001200D6
:06100800A2EF0EF0120041
:02100E00C250CE
:08101000020B01E0010E1200C9
:06101800FBEF0EF01200D8
:02101E000200CE
:101020003B340000D9000000020000001C34000026
:08103000950000001F00000004
:081038006DEC0EF0A0940F0115
:101040005F6B626A536BB6EC0DF0ECEC0DF0DF6A8F
:10105000F4EC0DF003E29CEC0DF0FAD7648C0F0178
:101060005C6B6498649C62A607D062960001786B02
:101070007D6B7E6B7F6BF7D70001010E916F926FD6
:10108000936B946B856BDF6A030EDF5C11E2EA6A97
:10109000DF3470EC0EF0EA22EE6AED6AEA6ADF34C1
:1010A00077EC0EF0EA22EE6AED6AACEC0DF0ECD7CC
:1010B0000001080E6E6F020E6F6F0F01160E536F58
:1010C0000201300E026F020E036F080E016F840ED4
:1010D000006F0001616B606BE55276EF0DF06DEC17
:1010E0000EF0000160510BE1646A606AECEC0DF0F7
:1010F00064B602D06486FCD70001010E606F600503
:1011000008E164BA06D0626A606A60806088020E94
:10111000606F6250040B05E06050040B02E06294C3
:1011200026DB64B245D06250010B08E06050010B31
:1011300005E082DF0001040E606F62906250100BC8
:1011400005E06050100B02E008DB629862AC0FD043
:1011500060AC05D00CEC0EF0730E63EC0DF0629CED
:1011600000018F5101E08F078F5101E1F0D86250EB
:10117000200B04E06050200B01E0DEDA6250020B2D
:101180000CE06050020B09E00CEC0EF0E6687F0EFC
:10119000E66E7EEC0EF00F015F6B040E0001E76E51
:1011A0006019E8AE02D0E73402D0E750605D02E299
:1011B000A1942ED060A62BD0DF6A040EDF5C27E25C
:1011C00062A625D063CF86F000018651780BE842F5
:1011D000E842E842876F629686B504D0875185EC75
:1011E0000EF003D087518AEC0EF0EA22EF7087519F
:1011F00002E1C9DA0AD0000EE66EE66A860EE66EF5
:10120000000EE66E720E63EC0DF0DF2AD6D7A194C5
:10121000E55276EF0DF03FEC0EF0FD0EDBA403D0AF
:10122000E66AFCEC0DF0FD0EDBA204D0010EE66ECA
:10123000FCEC0DF0FE0EDB50156A530F146E0F0E12
:10124000E6EC0DF067EC0DF0FD0EDBCFEFFF020ECC
:10125000E15C02E2E16AE552E16E76EF0DF03FEC0F
:101260000EF0FD0EDB5003E05EEC0DF002D08DECD5
:101270000DF0D2EC0DF0D9CFE9FFDACFEAFFEE5056
:10128000ED1003E1F36AF46A28D067EC0DF099ECF5
:101290000EF0FB0EDBCFEEFFFC0EDBCFEDFF67ECBD
:1012A0000DF0EE52FA0EDBCFEFFF400E8FEC0EF09A
:1012B000880E9EEC0EF0FD0EDB5003E05EEC0DF0B0
:1012C00002D08DEC0DF0EA22EF74DECF14F0DDCF0A
:1012D00015F014C0F3FF15C0F4FF020EE15C02E24A
:1012E000E16AE552E16E76EF0DF03FEC0EF0FE0E96
:1012F000DB5003E14DEC0EF009D092EC0DF02DEC3B
:101300000EF092EC0DF0010F2DEC0EF0020EE15CF0
:1013100002E2E16AE552E16EE9D3E3DB64A816D0AC
:101320005EEC0EF0400EEE16EE6AEE6AEE6A5EECD1
:101330000EF0EE7CC3DBEA22EF74400E146E5EEC1E
:101340000EF01450EF165EEC0EF0EF7CCFD30001E0
:10135000915122E1010E916F92511EE1010E926FA7
:10136000020E755D07E1B8DBEE52EF6AB5DBC80E21
:10137000EF6E1200750510E1886BC4DBEE52080EAB
:10138000EF6EC0DB39EC0EF0BDDB840EEF6E010EAC
:10139000886F90DB800EEF6E12000001936B946BF0
:1013A000020E755D06E193EC0EF0B1DB28EC0EF059
:1013B00010D079510201365D00017A51020137598E
:1013C00004E236C279F037C27AF061D885DB9FDB60
:1013D00083DBC80EEF6E12003FEC0EF0000EDE6EE7
:1013E000020EDD6E9FDB040DF4CF15F0D9CFE9FFBF
:1013F000DACFEAFFF350EE261550ED2268DBEF9EC0
:10140000FD0EDB5002E189DB01D058DBEA22DECFA2
:10141000EEFFDDCFEDFF5BDBEF9C59DB040EE92631
:10142000000EEA22EF8C020EE15C02E2E16AE55274
:10143000E16E5CD36498000178BF0DD07DAF09D018
:10144000020E756F945101E1A8DF0001926B916B60
:1014500012004DEF0EF0020130AF0DD00001010E71
:10146000756F935101E199DF0001926B916B90517F
:101470000DE1A7EF09F00001020E756F1BDB840E72
:10148000EF6E926B916B905101E161DF12006DEC98
:101490000EF0080EDF6E0001795D000E7A590AE247
:1014A00079C0DFFF745102E1010E03D0740502E13F
:1014B000020E746FDF50156AE850795D796F155030
:1014C0007A597A6F09DBEE52DFCFEFFF380E826F69
:1014D000020E836F78B10DD0DF5017E076C0F6FFB3
:1014E00077C0F7FF762B000E77230800F5504DDB11
:1014F000F3D7DF500AE076C0E9FF77C0EAFF762B2A
:10150000000E7723EF5041DBF4D7E552EFD2B7DB83
:10151000F9DAEE52EFCFDFFFDFCF14F01450000105
:101520007E5D000E7F5902E27EC0DFFFDF50146E49
:10153000156AE8507E5D7E6F15507F597F6F010EF2
:10154000DB6ADF50F36E010EDBCFF4FFF350F45C87
:1015500016E2010EDB50EA6A380FE96E020EEA224B
:10156000EF50E66E7BC0E9FF7CC0EAFF7B2B000EEC
:101570007C23E552E750EF6E010EDB2AE2D7000E26
:10158000D8807E55000E7F550DE2CDDBC0DABADA89
:10159000EF50400B03E15CDBC80E02D059DB880E34
:1015A000EF6E12D087DA840EEF6E8051811107E062
:1015B00005D081C0FAFF00018051F96EFADF000109
:1015C0007D9F905101E1C3DE020EE15C02E2E16A1F
:1015D000E552E16E8BD281DB0001788FC7DADF6ADA
:1015E00003DB02E2A9DAFCD7648CDF6A030EDF5C5E
:1015F00002E2B2DAFBD7020EE66EE66AE66A620E35
:10160000E66E000E62DB649C0001080E6E6F020E37
:101610006F6F000E646F020E656F64C066F0676FD7
:1016200032C261F0615102E1100E0BD0010EE66E84
:10163000E66A610EE66E000EE66E010E44DA000107
:10164000200E606FE55252D2800E0201305D38E10B
:101650000001C00E786F02013351030A1AE0010A3B
:1016600009E0030A2BE10001500E766F2F0E776F11
:10167000120E1ED0DFDA110EF626300EC5DA020E7B
:101680000001D1DAF5CF79F0030ECDDAF5CF7AF09B
:101690001200030E325D0FE2CDDA130EF626300E85
:1016A000B3DA76C0F6FF77C0F7FF0800F550000107
:1016B000796F7A6B12000001786B12000001786B71
:1016C0001200DDDA0201386B396B30511F0B020A50
:1016D00011E0030A0CE0010A1EE10001788F02010B
:1016E00038810001840517E10201388314D000011C
:1016F000788F11D00001788F020134BF02D0D4DA84
:1017000001D0D7DA4FDADDDA06E0E1D9EF50040B89
:1017100002E0010E386F000178AF07D0380E766F07
:10172000020E776F7881020E796F020EE15C02E2A1
:10173000E16AE552E16EDAD10F0153A10CD0E2D992
:10174000EF50800807E1C8D9EF50840803E1DAD9E7
:101750008C0EEF6E5391629A1200608462986482DC
:101760000001010E856F24DA750E63EF0DF00001A4
:10177000856B1EDA740EA7D96492609462A402D0BD
:101780006294FCD71200A9DA00012D0E8F6FFD0EB6
:10179000861539E17E0E8615E8407F0B040DF3CFE8
:1017A00064F0F4CF65F0000E6427020E652364C078
:1017B00066F065C067F06675A5D9EF503C0BE8424E
:1017C000E8420D081EE1DF6A080EDF5C16E29AD9D6
:1017D000020EE926000ED3D9EF50E66EDF50EA6A1A
:1017E000300FE96E020EEA22E552E750EF6E8AD919
:1017F000A0DAEE2AEF22DF2AE7D784D93ADA0AD82C
:1018000007D023D805D0FD0E8615040801E12CD899
:10181000E5526CD10001746B906B936B946B886B89
:10182000756B5AD9EF9E6E7557D9EF9E6E7510DAAB
:10183000EF9E786B796B7A6B7D6B7E6B7F6B51D88B
:10184000B7D9030E40D91AEF0AF0020E0001755DF8
:1018500002E187EF0AF0756B885104E12BD98C0EF9
:10186000EF6E1200886B120038DA36D9EF50400B59
:1018700001E0010EDF6E00016E75080E605D0BE188
:1018800032C25CFF0F015C5103E00001100E02D078
:101890000001040E606F750513E11ED938D9F7DD1C
:1018A000020E0001745D03E117D9840E07D0DF50EA
:1018B00003E112D9C80E02D00FD9880EEF6E0FD0F7
:1018C0007DAF0CD08051811107E005D081C0FAFFB7
:1018D00000018051F96EFADF00017D9F756BE552C2
:1018E00005D102013051600BE842E842E842E8428B
:1018F000E842000901E0120031510C0A45E00B0AF0
:101900003FE00C0A31E0010A22E00B0A1EE0020A65
:101910001CE0030A18E0080A10E0010A0CE00F0AB4
:1019200008E0030A01E012000001788F080E606FE2
:10193000120024EF0BF0EBEF0AF00001610E766F5E
:10194000000E776F0CD061EF0BF0C5EF0CF0345147
:101950000001766F776B620E7627000E7723788111
:10196000010E796F788F12000001788F02013451D7
:10197000EA6A620FE96E000EEA2232C2EFFF12003D
:1019800017D9020E63EF0DF01200ABD8050EE12659
:101990000201320510E130511F0B00090CE100017A
:1019A000788F030E0201315D04E10001010E846FA6
:1019B00002D00001846B0201325101E074D0305139
:1019C0001F0B020870E134510F0B00096CE0345119
:1019D0000F0B020868E3200E0001605D64E1788F60
:1019E000020134BF04D060D9DDD8E8D803D061D972
:1019F000D9D8E8D8EA22020EEFCFDBFF22D9010BBB
:101A000003E1000EDF9401D0DF8434BF02D04CD953
:101A100001D04FD9EA22DECFEEFFDDCFEDFF030E7E
:101A2000315D0CE14ED907E034BF02D0C7D801D0F8
:101A3000C9D8EA22EF82840E81D935D0DF7441D92A
:101A400006E045D8EF9E43D8EF8C1DD902D03FD891
:101A5000EF8CDF74F6D8020B02E133D90DE00201FE
:101A600034BF02D0ABD801D0ADD8EA22EF923B0E02
:101A7000146E55D908D902D03B0E51D90201345108
:101A80000F0B156A530F146E0F0E1522030E14C0A0
:101A9000DBFF040E15C0DBFF030EDBCFE9FF040EF6
:101AA000DBCFEAFFEF90050EE15C02E2E16AE5526E
:101AB000E16E1CD038D9DDD828EF0EF0FE0EEA6AB0
:101AC000DB3470EF0EF0E66EE66A7EEF0EF0DECFEE
:101AD000E9FFDDCFEAFF12006EC0E9FF6FC0EAFF49
:101AE0001200D9CFE6FFE1CFD9FF1200E552E7CFD0
:101AF000D9FF120034510F0BE96EEA6AD890E9362B
:101B0000EA36120064C0E9FF65C0EAFF120011D98D
:101B1000380EEE6E020EED6E1200FE0EEA6ADB3437
:101B200077EF0EF0FD0EDB50E824166EFE0EDB5054
:101B3000040DF35016241200DF50040DF3CFE9FF1B
:101B4000F4CFEAFF000EE926020EEA22EE6AEE6A00
:101B5000EE6AEE6ADF2A1200DF50DCD8EA22EF6A72
:101B6000DF50D3D8EA22EF6ADF2A1200020EE66EB7
:101B7000E66AE66A540EE66E0F0E65EF0EF0EA2294
:101B8000EE50EFCFEAFFE96E1200E66E82C0E9FF89
:101B900083C0EAFF822B000E8323E552E750EF6EED
:101BA000DF061200EA22EECFDEFFEDCFDDFF1200EE
:101BB000000EE66EE66AE66EE66A120034510F0B1E
:101BC00085EF0EF034510F0B8AEF0EF0152214C082
:101BD000DEFF15C0DDFF1200160E616E0F019F0EB5
:101BE0005B6F7B0E606E1200DF50146E156A0C0E78
:101BF000145C000E15581200FE0EDBCFE6FFECEC75
:101C000009F0E552E5521200F7220900F5CF76F00F
:101C10000A00F5CF77F01200010EE66EE66A000EBC
:101C2000E66EE66A1200F76A7625F66E7751F722BD
:101C3000080012003251F66EF76AD890F636F73681
:101C40001200D950020FE96EDACFEAFFEF5012000E
:101C500066C0E9FF67C0EAFF1200040DF3CF14F07D
:101C6000F4CF15F0000E1426020EB0DF840E9EEFA6
:101C70000EF05FD8300EEE6E020EED6E120031DF08
:101C8000020EE1261200020EE66EE66ADECFE6FFE5
:101C9000DDCFE6FF050E63EF0DF00CDF8C0EEF6E6F
:101CA0001BDF840EEF6E120025DF680EE926000EA2
:101CB000120020DF6E0EE926000E1200FFDEBFEFDD
:101CC0000DF005DFEF50800B1200E66E6DEC19F0A1
:101CD000146E050EE15E1450120003DFE65212008E
:101CE000FE0BEA36E96E6E0EE926000E1200FE0BC0
:101CF000EA36E96E680EE926000E1200E0EC15F0F7
:101D0000146E060EE15E14501200EA6A8C0FE96E42
:101D1000000E1200EA6A890FE96E000E1200D7DE8B
:101D2000E850EF16120094DFEE52080EEF6E28EF27
:101D30000EF0020EE926000EEA221200C8DEE8507C
:041D4000EF1212008C
:0C1D4400DACFE4FFE2CFDAFFE9CFE4FFE2
:101D5000EACFE4FFF6CFE4FFF7CFE4FFF5CFE4FFEF
:101D6000F3CFE4FFF4CFE4FFFACFE4FF00EE00F09E
:101D7000100EE80403E3EECFE4FFFBD700EE14F00F
:101D8000040EE80403E3EECFE4FFFBD7E652F25083
:101D9000200B0DE0F250040B0AE0F294D50EF6ECA5
:101DA00012F000019F2B000EA023A123A223E552D5
:101DB00000EE17F0040EE80403E3E5CFEDFFFBD7D8
:101DC00000EE0FF0100EE80403E3E5CFEDFFFBD7C4
:101DD000E5CFFAFFE5CFF4FFE5CFF3FFE5CFF5FF61
:101DE000E5CFF7FFE5CFF6FFE5CFEAFFE5CFE9FF67
:101DF000E5CFDAFF1100D8CFE4FFE0CFE4FFE46ED7
:101E0000DACFE4FFE2CFDAFFE9CFE4FFEACFE4FF85
:101E1000F6CFE4FFF7CFE4FFF5CFE4FFF3CFE4FF25
:101E2000F4CFE4FFFACFE4FF00EE00F0100EE80478
:101E300003E3EECFE4FFFBD700EE14F0040EE8045A
:101E400003E3EECFE4FFFBD7E6529D50020B01E126
:101E50008ED09E50020B01E18AD09E9200019E29F5
:101E6000106E1F0E116E11C00EF010C007F0E1ECE5
:101E700019F003C09EF000019D5101E113D1000152
:101E80009DA10CD00001955100019E5D02E2010E62
:101E900001D0000EE8B08B80E8A08B9000019DA3DC
:101EA0000CD00001965100019E5D02E2010E01D0AE
:101EB000000EE8B08B82E8A08B9200019DA50CD0AB
:101EC0000001975100019E5D02E2010E01D0000E5B
:101ED000E8B08B84E8A08B9400019DA70CD0000192
:101EE000985100019E5D02E2010E01D0000EE8B0A3
:101EF0008B86E8A08B9600019DA90CD0000199511A
:101F000000019E5D02E2010E01D0000EE8B08B8858
:101F1000E8A08B9800019DAB0CD000019A51000104
:101F20009E5D02E2010E01D0000EE8B08B8AE8A0AF
:101F30008B9A00019DAD0CD000019B5100019E5D6C
:101F400002E2010E01D0000EE8B08B8CE8A08B9C61
:101F500000019DAF0CD000019C5100019E5D02E28A
:101F6000010E01D0000EE8B08B8EE8A08B9EA05031
:101F7000020B62E0A150020B5FE0A192D50EE66E6B
:101F8000D10EE66EFEEC18F0E552E5520001A351C9
:101F900029E080B61FD0A4C010F0A5C011F0A6C0E3
:101FA00012F0A7C013F0B80E10260B0E1122000E6F
:101FB0001222000E132200019F51105C0001A0515B
:101FC00011580001A15112580001A251135801E209
:101FD000FF0008D09FC0A4F0A0C0A5F0A1C0A6F04B
:101FE000A2C0A7F00001AC51AD1126E09FC004F0E3
:101FF000A0C005F0A1C006F0A2C007F0A8C00BF079
:10200000A9C00CF0AAC00DF0ABC00EF05CEC18F04B
:1020100000C010F001C011F002C012F003C013F0B4
:10202000105011101210131007E105D0ADC0FAFFC7
:102030000001AC51F96EFADFF050080B0FE0F050E0
:10204000010B0CE0F0900001B051B11107E005D098
:10205000B1C0FAFF0001B051F96EFADFF050100B79
:102060000FE0F050020B0CE0F0920001B251B311FE
:1020700007E005D0B3C0FAFF0001B251F96EFADFF4
:10208000F250080B0FE0F250010B0CE0F29000014F
:10209000AE51AF1107E005D0AFC0FAFF0001AE515D
:1020A000F96EFADFE55200EE17F0040EE80403E3E0
:1020B000E5CFEDFFFBD700EE0FF0100EE80403E3D1
:1020C000E5CFEDFFFBD7E5CFFAFFE5CFF4FFE5CF96
:1020D000F3FFE5CFF5FFE5CFF7FFE5CFF6FFE5CF5F
:1020E000EAFFE5CFE9FFE5CFDAFFE550E5CFE0FF16
:1020F000E5CFD8FF10009FC004F0A0C005F0A1C03C
:1021000006F0A2C007F0120000000000000000006E
:1021100000000000000000000000000000000000BF
:10212000000000000000000000000000120000009D
:10213000000000000000000000000000000000009F
:10214000000000000000120064DA3DDA10E0570ED3
:10215000E66ED3EC19F0E552040EE66EEFEC19F0E2
:10216000E552FD0EDB06FE0EF0E2DB06EED723D2D3
:1021700050DA29DA07E0DBDFFD0EDB06FE0EF9E2BE
:10218000DB06F7D718D245DA1EDA0EE03DDA3CDA84
:102190003BDA6A0EE66E87EC19F0E552FD0EDB06BF
:1021A000FE0EF2E2DB06F0D706D20F0E27D2050EA6
:1021B00025D2F9D9DBAC14D0010EDF5204E0DFCF19
:1021C000F3FFFDD9FEE1E81C9416010EDF5204E096
:1021D000DFCFF3FFF4D9FEE1E81C00019D170BD01F
:1021E000DBAA09D0010EDF5204E0DFCFF3FFE7D90D
:1021F000FEE1E81C9316E552DED1D5D9DBAC14D054
:10220000010EDF5204E0DFCFF3FFD9D9FEE1E81C75
:102210009416010EDF5204E0DFCFF3FFD0D9FEE1C8
:1022200000019D13D9D9EF6AE552C5D1BCD9DBAC09
:1022300009D0010EDF5204E0DFCFF3FFC0D9FEE189
:1022400094120AD0DBAA08D0010EDF5204E0DFCFDF
:10225000F3FFB5D9FEE19312FE0EDB50250A14E020
:10226000010A10E0670A0CE0010A08E0030A04E032
:10227000010A0BE17E9809D07E9A07D07E9C05D09A
:102280007E9E03D07F9401D07F96E55294D1ABD946
:10229000DBAE1ED0DB508B0A19E0010A14E00D0AF8
:1022A0000FE0010A0AE0030A05E0010A11E17E8855
:1022B00094800ED07E8A94820BD07E8C948408D039
:1022C0007E8E948605D07F84938802D07F86938A01
:1022D00072D169D9DBAC2AD0010EDF5204E0DFCF26
:1022E000F3FF6DD9FEE100019D1509E0FD0EDB5005
:1022F0001F0BE66E71D9E552E750EF6E2FD0FD0E41
:10230000DB5009E0010EDF5204E0DFCFF3FF57D9C5
:10231000FEE18B1009D0010EDF5204E0DFCFF3FFA6
:102320004ED9FEE1E81C8B148B6E18D0DBAA16D0B8
:10233000FD0EDB5009E0010EDF5204E0DFCFF3FFBA
:102340003ED9FEE18A1009D0010EDF5204E0DFCF52
:10235000F3FF35D9FEE1E81C8A148A6EE5522BD1D1
:1023600022D9DBAC17D0010EDF5204E0DFCFF3FF40
:1023700026D9FEE100019D1503E02ED9EF5023D0B0
:102380008250DF5212E0DFCFF3FFE8327F0BF3061B
:10239000FCE10BD0DBAA0BD08150DF5206E0DFCF8F
:1023A000F3FFE8327F0BF306FCE1010B0CD0DBA856
:1023B0000FD08050DF5206E0DFCFF3FFE8327F0B13
:1023C000F306FCE1010B156AF36E15C0F4FF0FD0A4
:1023D000DF50080DF350E66E9EEC19F0E5520CEC60
:1023E0001AF007EC08F00009FCE1FAEC19F0E552EC
:1023F000E2D000019D511200D6D8DBAA08D0010E10
:10240000DF5204E0DFCFF3FFDAD8FEE17812E552C5
:10241000D2D0C9D8DBAA09D0010EDF5204E0DFCF49
:10242000F3FFCDD8FEE1E81C7816E552C4D0946ADB
:1024300093680D0EC26EC16AAF0EC06E7E6A7F6A6F
:102440009F0EE66E36EC19F0E552F184200ECED8E0
:10245000BC0EE66E52EC19F0E5529F92CD0EE66E80
:1024600080EC18F0E552A292200EE66ED10EE66ED8
:10247000FEEC18F0E552E55209EC1AF0D08EF28C21
:10248000F28EF19E120080A6010C000CC2D8F90E4B
:10249000DBCFACF0FA0EDBCFADF0FB0EDBCF14F0F0
:1024A000FC0EDBCF15F0FD0EDBCF16F0FE0EDBCF02
:1024B00017F014501510161017100BE1010EF36EE3
:1024C000FB0EF3CFDBFFFC0EDB6AFD0EDB6AFE0EBC
:1024D000DB6AFB0EDBCFA8F0FC0EDBCFA9F0FD0E14
:1024E000DBCFAAF0FE0EDBCFABF065D00001AC6B0A
:1024F000AD6B12008ED8FD0EDBCFAEF0FE0EDBCF43
:10250000AFF0E66EE1EC18F0E552F190798653D029
:102510000001AE6BAF6B7996F296F18E120063D824
:10252000DB50020A12E0030A22E1FB0EDBCFB0F01F
:10253000FC0EDBCFB1F0FD0EDB50BF0BFE0BE66EE9
:10254000C1EC18F0E552410E0FD0FB0EDBCFB2F01C
:10255000FC0EDBCFB3F0FD0EDB50BF0BFE0BE66EC7
:10256000A1EC18F0E552420EE66E60DEE55223D093
:102570003AD8DB50020A07E0030A09E10001B06B18
:10258000B16BF09604D00001B26BB36BF09813D02E
:102590000001010EA36FA46BA56BA66BA76B1200C5
:1025A0000001A36B120035D8E652FE0EDB500F0B74
:1025B000DF6EFE0E1200E552E7CFD9FF1200E846AB
:1025C000FE0BF3061200D950FD0FE96EFF0EDA2064
:1025D000EA6EEE50ED101200DF50EA6A950FE96ED8
:1025E000000EEA22120015D8FE0E1200E66ED10E81
:1025F000E66E1AEC19F0E552E5521200E66EE66A54
:10260000A3DDE552E5521200E66A87EC19F0E552C7
:0C2610001200D9CFE6FFE1CFD9FF120085
:04261C000201305136
:102620001F0B010801E012003051600BE842E84244
:10263000E842E842E842010801E01200345103E0B8
:10264000340501E012003151220A31E0030A24E08E
:10265000010A15E0210A0DE0010A01E01200000163
:10266000C50E766F000E776F080E796F7A6B7881E2
:1026700021D00001C50E766F000E776F1BD036C2D9
:102680007EF037C27FF00001CA0E7B6F020E7C6FB6
:10269000806B816B7D8F12000001CA0E766F020E77
:1026A000776F070E796F7A6BC10E786F120032C2A6
:1026B000C0F00001788F12000201CA6B4B0ECB6F85
:1026C000CC6BCD6BCE6BCF6B080ED06F0001B46BB3
:1026D0001A0EE66E010EE66E0BEC09F0E552E552BD
:1026E0001E0EE66E020EE66E0BEC09F0E552E552A8
:1026F0001CD90001BE6BBF6BB56B120041D96CD900
:10270000050E061801E1075002E0000E14D048D96A
:102710000001BC51141804E1BD51151801E105D99F
:102720003FD90001BE51141805E1BF51151802E14F
:10273000B56BBA6B010E29D123D90001B46BBC5122
:10274000BD1102E1000E05D039D9EF50800B01E038
:10275000010E00092DE1FC0EDBCF14F02FD9EE5253
:10276000EF50D880145405E229D9EE52FC0EEFCF79
:10277000DBFFB46BFC0EDB50B45D19E2B451EA6AC6
:102780004A0FE96E020EEA22EF50E66EB451E76E90
:10279000FD0EDBCFE9FFFE0EDBCFEAFFE750E926B7
:1027A000000EEA22E552E750EF6EB42BE3D7BDD816
:1027B0000001B451EAD0E4D80001B55107E1E9D8ED
:1027C000FC0EDBCFBAF0010EBB6FB56FDED00BD9BC
:1027D00017E1C0D8ECD802E115500BE0010EDBCFB9
:1027E000E9FFDB2A020EDBCFEAFF01E3DB2AEF5031
:1027F000F1E1CFD8DFCFBAF00001010EBB6FB56FAA
:10280000030EE15C02E2E16AE552E16EBED0EBD874
:1028100018E1A0D8CCD802E115500CE0010EDBCFB6
:10282000F6FFDB2A020EDBCFF7FF01E3DB2A08000D
:10283000F550F0E1AED8DFCFBAF00001BB6B010E6E
:10284000B56F030EE15C02E2E16AE552E16E9DD0F4
:1028500097D8020EE1260001BE51BF1102E1000E21
:1028600008D0BEC0E9FFBFC0EAFFEF50800B01E017
:10287000010E000953E1030EB55D01E1B56BB551E1
:102880004DE0020EB55D09E1E66A000EE66EE66A0D
:1028900059D80001030EB56F41D0B5053FE1400E98
:1028A000146E156ABA51145C000E155803E2400EFE
:1028B000DF6E02D0BAC0DFFFDF50BA5DBA6F8A0E9A
:1028C000B86F020EB96F010EDFCFDBFFBB510BE11A
:1028D000010EDB5012E0B6C0F6FFB7C0F7FF0800EC
:1028E000F55041D8F5D7010EDB5007E0B6C0E9FF3F
:1028F000B7C0EAFFEF5037D8F6D70001BA5107E169
:10290000400EDF5C02E1020E01D0030EB56FDFCF97
:10291000E6FF8A0EE66E020EE66E14D8020EE15C49
:1029200002E2E16AE552E16E30D0400EE66E4A0EF8
:10293000E66E020EE66EE66A46D8F3CFBCF0F4CF40
:10294000BDF01200010EE66E3ED8F3CFBEF0F4CF1C
:10295000BFF01200DF6A40D8DE5206C0DEFF07C0BB
:10296000DDFFDD521200B8C0E9FFB9C0EAFFEF6E2B
:10297000B82B000EB923B62BB723010EDB061200CD
:10298000D9CFE6FFE1CFD9FF1200E552E7CFD9FF5B
:102990001200FD0EDBCFB6F0FE0EDBCFB7F012005B
:1029A000FB0EDBCF14F0FC0EDBCF15F01200DF2A9C
:1029B000DF50146E156AFF0E14181200BCC0E9FF38
:1029C000BDC0EAFF1200020EE66E2FEC09F0146E95
:1029D000050EE15E14501200FD0EDBCF06F0FE0E78
:1029E000DBCF07F01200CCDF030EE1260001B5516A
:0229F0001200D3
:0E29F2001CEF08F06FEC08F028EF14F046D947
:102A0000F8DFDECF14F0DDCF15F0166AD89016503F
:102A1000000A06E6500E145CC30E1558000E165838
:102A200006E2E9DFDF2A010EECE3DB2AEAD7020E39
:102A3000E15C02E2E16AE552E16E13D105D9E8AE4C
:102A400002D0E73402D0E750605D1CE36450020B13
:102A500019E10001B55114E1FC0EDBCFE6FFFAD815
:102A6000DBEC13F0E552E552E5520001B55108E008
:102A7000FCD801E601D904E204D9F7E3DB2AF5D753
:102A800028EC14F0020EE15C02E2E16AE552E16E2C
:102A9000E8D0DAD8E8AE02D0E73402D0E750605D83
:102AA00018E36450020B15E10001B55110E1D2D8D2
:102AB000E7EC13F0E552E5520001B55108E0D5D836
:102AC00001E6DAD804E2DDD8F7E3DB2AF5D728EC13
:102AD00014F0020EE15C02E2E16AE552E16EC1D05F
:102AE000B3D8E8AE02D0E73402D0E750605D16E319
:102AF0006450020B13E10001B55110E1ABD807ECB3
:102B000014F0E552E5520001B55108E0AED801E6F7
:102B1000B3D804E2B6D8F7E3DB2AF5D7020EE15CBE
:102B200002E2E16AE552E16E9CD0B6D8E652DF6A75
:102B3000200E0001E76E6019E8AE02D0E73402D043
:102B4000E750605D03E36450020B02E0000E0BD01F
:102B5000FC0EDBCFE6FF7ED89CEC13F0E552E5528D
:102B6000E552DF6EDF50E5527CD0120012001200F9
:102B700012000EEF13F012005CEF13F00001840559
:102B80001EE1000185051BE1F1DF64920001856B08
:102B90000001100ED76F0E0ED86FD707000ED85B4E
:102BA000D751D811FAE16484080ED76F070ED86F99
:102BB000D707000ED85BD751D811FAE16494120000
:102BC0006BD8FD0EDBCF06F0FE0EDBCF07F0050E57
:102BD000061801E1075036E0E868061802E17F0EAA
:102BE00007182FE0030E061801E1075028E0020E37
:102BF000061801E1075021E0010E061801E1075017
:102C00001AE0740E061801E1075013E0750E06185D
:102C100001E107500CE0730E061801E1075005E0D2
:102C2000720E06180FE107500DD0A1DF0BD09DDF0B
:102C300009D09CDF07D0A0DF05D09DDF03D099DF4E
:102C400001D096DF010E0DD021D8200E0001E76ED5
:102C500060191200FD0EDBCFE6FFFE0EDBCFE6FFB4
:102C60001200E552E7CFD9FF1200DECF14F0DDCF1E
:102C700015F0D89015501200000E145C010E155876
:102C8000120028EC14F0DF2A010E120005D8020E03
:102C9000E126DE6ADD6A1200D9CFE6FFE1CFD9FF77
:022CA000120020
:0E2CA200D9CFE6FFDACFE6FFF80EE3CFD9FF79
:102CB000F90EE3CFDAFFFD0EE35215E72D0EDE6EBF
:102CC000FA0EE31EFB0EE31EFC0EE31EFD0EE31EDA
:102CD000FA0EE32A08E1FB0EE32A05E1FC0EE32AE3
:102CE00002E1FD0EE32AE652E652E652E652E652D1
:102CF000FB0EE124E76EFF0EE220E46EE652F30ED7
:102D0000E3CFE6FFF30EE3CFE6FFF30EE3CFE6FFFC
:102D1000F30EE3CFE6FFEEEC16F0F50EE124E96EDC
:102D2000FF0EE220EA6EDBEC16F019E1DEEC16F0A5
:102D300018E1DBEC16F017E1DEEC16F016E1DBEC47
:102D400016F015E1DEEC16F014E1DBEC16F013E101
:102D5000DEEC16F012E1DBEC16F011E112D0E4EC3F
:102D600016F0E9EC16F0E4EC16F0E9EC16F0E4EC01
:102D700016F0E9EC16F0E4EC16F0E9EC16F0E4ECF1
:102D800016F0E9EC16F0DE6AF50EE126FF0EE222FF
:102D9000FF0EE3CFDAFFE552FF0EE3CFD9FFE55296
:102DA000FA0EE124E96EFF0EE220EA6EEECFF3FFA9
:102DB000EFCFF4FF1200EF380F0B1200EF500F0BA4
:102DC00002E1EE52D8841200EF380F0B300FDE6EA6
:102DD0001200EE500F0B300FDE6E1200FA0EE3CF32
:102DE000E9FFFB0EE3CFEAFF200EE66EEE6AEE6A25
:102DF000EE6AEE6AEF6AD890FB0EE336FC0EE3361D
:102E0000FD0EE336FE0EE336ED36ED36ED36ED36ED
:102E1000EF36FF0EE3060FE01DEC17F0EE521DEC4F
:102E200017F0EE521DEC17F0EE521DEC17F0EE52BB
:102E30001DEC17F0E1D7E56E1200030EEF24E8B6A3
:0C2E4000EF6E300EEF24E8BEEF6E000CC9
:042E4C00D9CFE6FFF5
:102E5000E1CFD9FF0C0EE12617EC12F0470EE66E1B
:102E6000D9EC10F0E552FFEC14F0090EE66E340ECA
:102E7000E66E70EC15F0E552E55256D8E80E146E89
:102E8000030E156E166A176AD9CFE9FFDACFEAFF8B
:102E9000EE501426EE501522EE501622EE50172258
:102EA00014C0E6FF15C0E6FF16C0E6FF17C0E6FF38
:102EB0007BEC10F0E552E7CF17F0E552E7CF16F0C4
:102EC000E552E7CF15F0E552E7CF14F00450145C5B
:102ED00005501558065016580750175822E224D8A6
:102EE00030D8D9CFE9FFDACFEAFFEECFE6FFEECF59
:102EF000E6FFEECFE6FFEFCFE6FF51EC16F0146EE3
:102F0000060EE15E14501DD849EC15F0E552E5526D
:102F1000060EE66E340EE66E70EC15F0E552E552E4
:102F20008B7EFBEC14F0AAD77BEC10F004C0DEFF24
:102F300005C0DEFF06C0DEFF07C0DDFFDD52DD524B
:102F40001200D950040FE66E000EDA20E66E120071
:102F50001201000202000008D8040A000001010268
:102F6000000109024300020100C03209040000010F
:102F700002020100052400100104240202052406B7
:102F8000000105240100010705810308000209046E
:102F90000100020A000000070502024000000705C8
:102FA00082024000000403090434034D00690063F9
:102FB0000072006F00630068006900700020005418
:102FC000006500630068006E006F006C006F0067B2
:102FD000007900200049006E0063002E0034034396
:102FE00000440043002000520053002D0032003303
:102FF000003200200045006D0075006C0061007417
:103000000069006F006E002000440065006D006FD5
:0930100000622FA52FA92FDD2F6E
:06301A001E0EF66E100E02
:10302000F76E000EF86E00010900F550D26F09002E
:10303000F550D36F03E1D26701D03DD00900F550C0
:10304000CD6F0900F550CE6F0900F550CF6F090024
:103050000900F550E96E0900F550EA6E0900090013
:103060000900F550D06F0900F550D16F0900090033
:10307000F6CFD4F0F7CFD5F0F8CFD6F0CDC0F6FF2D
:10308000CEC0F7FFCFC0F8FF0001D05302E1D1530B
:1030900007E00900F550EE6ED007F8E2D107F9D746
:1030A000D4C0F6FFD5C0F7FFD6C0F8FF0001D207A5
:0830B000000ED35BBFD7120034
:0830B800036A026A016A006A62
:1030C000200EE76ED89004360536063607360036F1
:1030D0000136023603360B50005C0C5001580D507F
:1030E00002580E50035809E30B50005E0C50015A71
:1030F0000D50025A0E50035A042AE72EE4D712004C
:10310000D9CFE6FFDACFE6FFE1CFD9FFE2CFDAFF92
:10311000FD0EDB50360BB16EB36AB26AA192FD0EA2
:10312000DBAE02D0A08201D0A092DBA002D0B18E93
:1031300001D0B19EB180E552E5CFDAFFE7CFD9FFEC
:0231400012007B
:0E314200D9CFE6FFDACFE6FFE1CFD9FFE2CF2B
:10315000DAFFF092FD0EDBA202D0F18801D0F198E7
:103160009484DBAC02D0F08E01D0F09EDBAE02D0B6
:10317000F08801D0F098E552E5CFDAFFE7CFD9FF2C
:0231800012003B
:0E318200D9CFE6FFDACFE6FFE1CFD9FFE2CFEB
:10319000DAFFF090FD0EDBA202D0F18A01D0F19AA5
:1031A0009482DBAC02D0F08C01D0F09CDBAE02D07C
:1031B000F08601D0F096E552E5CFDAFFE7CFD9FFF0
:0231C0001200FB
:0E31C200D9CFE6FFDACFE6FFE1CFD9FFE2CFAB
:1031D000DAFFE6528150DF6EFD0EDBA002D0F18EE9
:1031E00001D0F19EDBAE02D0F28601D0F296E5521C
:0C31F000E552E5CFDAFFE7CFD9FF12006F
:0431FC00D9CFE6FF42
:10320000DACFE6FFE1CFD9FFE2CFDAFFE652E652AE
:10321000FC0EDBCFDEFFDBCFDDFF010EDB50B36E3C
:10322000DF50B26EE552E552E552E5CFDAFFE7CF67
:04323000D9FF1200B0
:0C323400D9CFE6FFDACFE6FFE1CFD9FFEB
:10324000E2CFDAFFE652E652FC0EDBCFDEFFDBCF49
:10325000DDFF010EDB50D76EDF50D66EE552E55232
:0C326000E552E5CFDAFFE7CFD9FF1200FE
:04326C00D9CFE6FFD1
:10327000DACFE6FFE1CFD9FFE2CFDAFFFD0EDB5078
:103280007F0BD56ED76AD66AF294FD0EDBAE02D004
:10329000F28A01D0F29AD58EE552E5CFDAFFE7CF78
:0432A000D9FF120040
:0C32A400D9CFE6FFDACFE6FFE1CFD9FF7B
:1032B000E2CFDAFFFD0EDB50FB0BCA6ECC6A9E92AA
:1032C000FD0EDBAE02D09D8201D09D92CA84E552F4
:0A32D000E5CFDAFFE7CFD9FF1200C7
:0632DA00FE0EE3CFE9FF48
:1032E000FF0EE3CFEAFFE9CFF3FFEACFF4FFFB0ED7
:1032F000E35003E1FC0EE35009E0FB0EE30602E2BB
:0E330000FC0EE306FD0EE350EE6EF1D7120058
:02330E00FF0EB0
:10331000E350196EEF0E01D0F30EE76EE72E8EEF3D
:1033200019F00C0E186EE76AE72E94EF19F0182EBC
:0C33300093EF19F0192E8CEF19F0120029
:04333C00D9CFE6FF00
:10334000DACFE6FFE1CFD9FFE2CFDAFFC30EC21436
:10335000146EFD0EDB407F0B3C0B1410C26EE55269
:0A336000E5CFDAFFE7CFD9FF120036
:06336A00000EF36E00EE00
:1033700000F0030E01D81200EA6002D0EE6AFCD71A
:0A338000F350E9601200EE6AFCD77A
:06338A0011EE00F021EE3F
:1033900000F0F86A0A9C0DEC18F003EC08F026EC3B
:0633A00017F0FBD712003C
:0A33A600FF0EE350196E1B0E00D05D
:1033B00001D0200EE76EE72EFED7192EFAD700D0E7
:0233C0001200F9
:0E33C200036A080EE76ED890073603360E50E9
:0E33D000035C02E3036E072AE72EF7D7120014
:0233DE00FF0EE0
:1033E000E350E84E1200000000D000D000D0E82EDC
:0433F000FAD71200F6
:0C33F400C450176E166AC3501610F36E1A
:0634000017C0F4FF1200EA
:0A3406000D0A00426567696E2E0D85
:023410000A00B0
:06341200CD909D90120018
:04341800C28212005A
:04341C0000000000AC
:10342000000000000000000000000100000000E8B3
:0B34300003000000000000000000008E
:02343B00F4019A
:00000001FF
