:020000040000FA
:06000000B9EF17F0120039
:06100000B9EF17F0120029
:021006001200D6
:061008001CEF08F01200CD
:02100E00C250CE
:08101000020B01E0010E1200C9
:0610180075EF08F0120064
:02101E000200CE
:10102000173000008B00000002000000F82F0000C5
:08103000600000001F00000039
:08103800DACFE4FFE2CFDAFF9A
:10104000E9CFE4FFEACFE4FFF6CFE4FFF7CFE4FF18
:10105000F5CFE4FFF3CFE4FFF4CFE4FFFACFE4FFF2
:1010600000EE28F0140EE80403E3EECFE4FFFBD714
:1010700000EE00F0280EE80403E3EECFE4FFFBD718
:10108000E652F250200B0DE0F250040B0AE0F2940D
:10109000D50E70EC0CF000016A2B000E6B236C2354
:1010A0006D23E55200EE27F0280EE80403E3E5CFB8
:1010B000EDFFFBD700EE3BF0140EE80403E3E5CFB1
:1010C000EDFFFBD7E5CFFAFFE5CFF4FFE5CFF3FF68
:1010D000E5CFF5FFE5CFF7FFE5CFF6FFE5CFEAFF78
:1010E000E5CFE9FFE5CFDAFF1100D8CFE4FFE0CF8D
:1010F000E4FFE46EDACFE4FFE2CFDAFFE9CFE4FF0A
:10110000EACFE4FFF6CFE4FFF7CFE4FFF5CFE4FF4B
:10111000F3CFE4FFF4CFE4FFFACFE4FF00EE28F0D2
:10112000140EE80403E3EECFE4FFFBD700EE00F07B
:10113000280EE80403E3EECFE4FFFBD7E6529D5010
:10114000020B01E18ED09E50020B01E18AD09E92EB
:10115000000169293C6E1F0E3D6E3DC034F03CC05D
:101160002FF0D5EC17F02BC069F00001685101E1B8
:1011700013D1000168A10CD0000160510001695D2C
:1011800002E2010E01D0000EE8B08B80E8A08B9047
:10119000000168A30CD0000161510001695D02E209
:1011A000010E01D0000EE8B08B82E8A08B92000106
:1011B00068A50CD0000162510001695D02E2010ED8
:1011C00001D0000EE8B08B84E8A08B94000168A7E2
:1011D0000CD0000163510001695D02E2010E01D0F3
:1011E000000EE8B08B86E8A08B96000168A90CD0B1
:1011F000000164510001695D02E2010E01D0000EA0
:10120000E8B08B88E8A08B98000168AB0CD0000197
:1012100065510001695D02E2010E01D0000EE8B0E7
:101220008B8AE8A08B9A000168AD0CD00001665152
:101230000001695D02E2010E01D0000EE8B08B8C66
:10124000E8A08B9C000168AF0CD000016751000141
:10125000695D02E2010E01D0000EE8B08B8EE8A0BD
:101260008B9EA050020B62E0A150020B5FE0A192A6
:10127000D50EE66ED10EE66E0CEC17F0E552E55297
:1012800000016E5129E080B61FD06FC03CF070C0E5
:101290003DF071C03EF072C03FF0B80E3C260B0E20
:1012A0003D22000E3E22000E3F2200016A513C5CAE
:1012B00000016B513D5800016C513E5800016D51C9
:1012C0003F5801E2FF0008D06AC06FF06BC070F0B9
:1012D0006CC071F06DC072F000017751781126E09A
:1012E0006AC02CF06BC02DF06CC02EF06DC02FF0DA
:1012F00073C031F074C032F075C033F076C034F092
:101300006AEC16F028C03CF029C03DF02AC03EF03F
:101310002BC03FF03C503D103E103F1007E105D080
:1013200078C0FAFF00017751F96EFADFF050080B30
:101330000FE0F050010B0CE0F09000017B517C11AC
:1013400007E005D07CC0FAFF00017B51F96EFADF9F
:10135000F050100B0FE0F050020B0CE0F092000187
:101360007D517E1107E005D07EC0FAFF00017D515E
:10137000F96EFADFF250080B0FE0F250010B0CE0AF
:10138000F290000179517A1107E005D07AC0FAFF96
:1013900000017951F96EFADFE55200EE27F0280ED0
:1013A000E80403E3E5CFEDFFFBD700EE3BF0140EBE
:1013B000E80403E3E5CFEDFFFBD7E5CFFAFFE5CF88
:1013C000F4FFE5CFF3FFE5CFF5FFE5CFF7FFE5CF7E
:1013D000F6FFE5CFEAFFE5CFE9FFE5CFDAFFE5501D
:1013E000E5CFE0FFE5CFD8FF10006AC02CF06BC05E
:1013F0002DF06CC02EF06DC02FF012000000000028
:1014000000000000000000000000000000000000DC
:1014100000000000000000000000000000000000CC
:1014200012000000000000000000000000000000AA
:1014300000000000000000000000120064DA3DDA45
:1014400010E0570EE66EC7EC17F0E552040EE66E9C
:10145000E3EC17F0E552FD0EDB06FE0EF0E2DB06D4
:10146000EED723D250DA29DA07E0DBDFFD0EDB0608
:10147000FE0EF9E2DB06F7D718D245DA1EDA0EE0E7
:101480003DDA3CDA3BDA6A0EE66E7BEC17F0E552A9
:10149000FD0EDB06FE0EF2E2DB06F0D706D20F0EE3
:1014A00027D2050E25D2F9D9DBAC14D0010EDF52BC
:1014B00004E0DFCFF3FFFDD9FEE1E81C9416010E36
:1014C000DF5204E0DFCFF3FFF4D9FEE1E81C0001B6
:1014D00068170BD0DBAA09D0010EDF5204E0DFCF82
:1014E000F3FFE7D9FEE1E81C9316E552DED1D5D92A
:1014F000DBAC14D0010EDF5204E0DFCFF3FFD9D90B
:10150000FEE1E81C9416010EDF5204E0DFCFF3FF8A
:10151000D0D9FEE100016813D9D9EF6AE552C5D1EF
:10152000BCD9DBAC09D0010EDF5204E0DFCFF3FF02
:10153000C0D9FEE194120AD0DBAA08D0010EDF5216
:1015400004E0DFCFF3FFB5D9FEE19312FE0EDB50CE
:10155000250A14E0010A10E0670A0CE0010A08E01D
:10156000030A04E0010A0BE17E9809D07E9A07D0B5
:101570007E9C05D07E9E03D07F9401D07F96E5525D
:1015800094D1ABD9DBAE1ED0DB508B0A19E0010A37
:1015900014E00D0A0FE0010A0AE0030A05E0010A5F
:1015A00011E17E8894800ED07E8A94820BD07E8C4E
:1015B000948408D07E8E948605D07F84938802D050
:1015C0007F86938A72D169D9DBAC2AD0010EDF52B3
:1015D00004E0DFCFF3FF6DD9FEE10001681509E0FB
:1015E000FD0EDB501F0BE66E71D9E552E750EF6E32
:1015F0002FD0FD0EDB5009E0010EDF5204E0DFCFFB
:10160000F3FF57D9FEE18B1009D0010EDF5204E041
:10161000DFCFF3FF4ED9FEE1E81C8B148B6E18D0A0
:10162000DBAA16D0FD0EDB5009E0010EDF5204E00C
:10163000DFCFF3FF3ED9FEE18A1009D0010EDF5261
:1016400004E0DFCFF3FF35D9FEE1E81C8A148A6E8F
:10165000E5522BD122D9DBAC17D0010EDF5204E0CA
:10166000DFCFF3FF26D9FEE10001681503E02ED994
:10167000EF5023D08250DF5212E0DFCFF3FFE83289
:101680007F0BF306FCE10BD0DBAA0BD08150DF52BD
:1016900006E0DFCFF3FFE8327F0BF306FCE1010B3E
:1016A0000CD0DBA80FD08050DF5206E0DFCFF3FF75
:1016B000E8327F0BF306FCE1010B016AF36E01C017
:1016C000F4FF0FD0DF50080DF350E66E92EC17F0E8
:1016D000E552FAEC17F007EC08F00009FCE1EEEC3B
:1016E00017F0E552E2D0000168511200D6D8DBAA0B
:1016F00008D0010EDF5204E0DFCFF3FFDAD8FEE1BD
:101700007812E552D2D0C9D8DBAA09D0010EDF5237
:1017100004E0DFCFF3FFCDD8FEE1E81C7816E552F8
:10172000C4D0946A93680D0EC26EC16AAF0EC06ECB
:101730007E6A7F6A9F0EE66E44EC17F0E552F184F4
:10174000200ECED8BC0EE66E60EC17F0E5529F92EC
:10175000CD0EE66E8EEC16F0E552A292200EE66EED
:10176000D10EE66E0CEC17F0E552E552F7EC17F0EF
:10177000D08EF28CF28EF19E120080A6010C000C2D
:10178000C2D8F90EDBCF77F0FA0EDBCF78F0FB0E84
:10179000DBCF00F0FC0EDBCF01F0FD0EDBCF02F063
:1017A000FE0EDBCF03F000500110021003100BE11E
:1017B000010EF36EFB0EF3CFDBFFFC0EDB6AFD0EBA
:1017C000DB6AFE0EDB6AFB0EDBCF73F0FC0EDBCFB9
:1017D00074F0FD0EDBCF75F0FE0EDBCF76F065D03A
:1017E0000001776B786B12008ED8FD0EDBCF79F09D
:1017F000FE0EDBCF7AF0E66EEFEC16F0E552F190DC
:10180000798653D00001796B7A6B7996F296F18ED6
:10181000120063D8DB50020A12E0030A22E1FB0E39
:10182000DBCF7BF0FC0EDBCF7CF0FD0EDB50BF0B83
:10183000FE0BE66ECFEC16F0E552410E0FD0FB0E1C
:10184000DBCF7DF0FC0EDBCF7EF0FD0EDB50BF0B5F
:10185000FE0BE66EAFEC16F0E552420EE66E60DE71
:10186000E55223D03AD8DB50020A07E0030A09E127
:1018700000017B6B7C6BF09604D000017D6B7E6B6E
:10188000F09813D00001010E6E6F6F6B706B716B6F
:10189000726B120000016E6B120035D8E652FE0E1C
:1018A000DB500F0BDF6EFE0E1200E552E7CFD9FFC3
:1018B0001200E846FE0BF3061200D950FD0FE96E48
:1018C000FF0EDA20EA6EEE50ED101200DF50EA6AE9
:1018D000600FE96E000EEA22120015D8FE0E12000B
:1018E000E66ED10EE66E28EC17F0E552E5521200D6
:1018F000E66EE66AA3DDE552E5521200E66A7BEC8D
:1019000017F0E5521200D9CFE6FFE1CFD9FF120060
:10191000D9CFE6FFDACFE6FFE1CFD9FFE2CFDAFF9A
:10192000260EE12402E3E168E652E16ED950FA0F97
:10193000E96EFF0EDA20EA6E010EEECFDBFF020E3B
:10194000EECFDBFF030EEECFDBFF040EEECFDBFFAF
:10195000050EDB6A060EDB6A800EF36E070EF3CF10
:10196000DBFF330EF36E080EF3CFDBFFD950090F08
:10197000E66E000EDA20E66E98DACDEC14F0006E1A
:10198000060EE15C02E2E16AE552E16E0050DF6EB4
:10199000800EDF5C07E1010EDB68020EDB68030EE0
:1019A000DB681DD0DF0466E0040EDF5C05E10F0E8E
:1019B000DB5001E1D5D127D007DA170E326E720E57
:1019C000336EB10E346E420E356EEAD9B3EC11F0BF
:1019D000010A07E1220E0001896F8A6B4ADA7F0E45
:1019E0004BD0F2D9D80E326E8E0E336ECE0E346ED0
:1019F000C20E356ED5D9BCEC11F0010A0DE1220EF4
:101A00000001896F8A6B010EDB6A020EDB6A030E2E
:101A1000DB6A040EDB6AA4D1D950FA0FE96EFF0E1F
:101A2000F1D937EC16F0E552E552E552E5522CC0FB
:101A300000F02DC001F02EC002F02FC003F0050E03
:101A4000DBCF04F0060EDBCF05F0070EDBCF06F090
:101A5000080EDBCF07F004C032F005C033F006C03B
:101A600034F007C035F02CC02DF025DABCEC11F0B5
:101A7000010A07E1FED93F0EF36E040EF3CFDBFF40
:101A80006FD1A2D93B0E326EAA0E336EB80E346EF1
:101A90003F0E356E85D9C1D987D9356A81D9BCEC5D
:101AA00011F0010A04E10EDA40EC10F003D00ADA7A
:101AB00041EC10F084EC11F01C0E2EC0DBFF1D0E6B
:101AC0002FC0DBFF1C0EDBCF2EF01D0EDBCF2FF067
:101AD0006DEC0FF0D8D9326A336A800E346EBF0EC7
:101AE000356E9BD9FA0EDBCF04F0FB0EDBCF05F091
:101AF000FC0EDBCF06F0FD0EDBCF07F01E0EDBCFBA
:101B00000CF01F0EDBCF0DF0200EDBCF0EF0210E00
:101B1000DBCF0FF0326A800E336E310E346E3F0E23
:101B2000356E0CC02DF00DC02EF00EC02FF00FC082
:101B300030F0D3EC0FF02DC008F02EC009F02FC00C
:101B40000AF030C00BF055D9A7D941EC10F09BD961
:101B50001E0EDBCF14F01F0EDBCF15F0200EDBCFF7
:101B600016F0210EDBCF17F0830E326E800E336E2F
:101B70005E0E346EB90E356E14C02DF015C02EF009
:101B800016C02FF017C030F0D3EC0FF02DC010F0BE
:101B90002EC011F02FC012F030C013F098D9180EDB
:101BA0002DC0DBFF190E2EC0DBFF1A0E2FC0DBFF8E
:101BB0001B0E30C0DBFF180EDBCF2DF0190EDBCF74
:101BC0002EF01A0EDBCF2FF01B0EDBCF30F034D906
:101BD000220E2DC0DBFF230E2EC0DBFF240E2FC0F4
:101BE000DBFF250E37D9080E326E530E336E880E8A
:101BF000346E3B0EF6D8800E346E3E0E356E41ECE0
:101C000010F01AD9100E2DC0DBFF110E2EC0DBFF15
:101C1000120E2FC0DBFF130E1DD95B0E326EBF0EEE
:101C2000336E4C0E346E3D0EDCD8346A3F0E356E8A
:101C300041EC10F0140E2DC0DBFF150E2EC0DBFFA3
:101C4000160E2FC0DBFF170E30C0DBFF006A016AE3
:101C5000026A3F0E036E100EDBCF08F0110EDBCFD1
:101C600009F0120EDBCF0AF0130EDBCF0BF0140ECF
:101C7000DBCF10F0150EDBCF11F0160EDBCF12F01C
:101C8000170EDBCF13F0100EDBCF14F0110EDBCFED
:101C900015F0120EDBCF16F0130EDBCF17F014C0C9
:101CA00032F015C033F016C034F017C035F010C054
:101CB0002DF011C02EF012C02FF013C030F040EC08
:101CC00010F02DC00CF02EC00DF02FC00EF030C063
:101CD0000FF08FD808C02DF009C02EF00AC02FF0E9
:101CE0000BC030F080EC0FF02DC004F02EC005F0DA
:101CF0002FC006F030C007F0EAD8010E2DC0DBFF80
:101D0000020E2EC0DBFF030E2FC0DBFF040E30C01F
:101D1000DBFF010EE76E1C0EDBCF00F01D0EDBCFEC
:101D200001F0E7500026000E012200C0E6FF01C0CE
:101D3000E6FFBBD831EC14F0026E060EE15C02E265
:101D4000E16AE552E16E0250010E2CC0DBFF020E8B
:101D50002DC0DBFF030E2EC0DBFF040E2FC0DBFF08
:101D6000010EDBCF00F0020EDBCF01F0030EDBCF64
:101D700002F0040EDBCF03F000C02CF001C02DF008
:101D800002C02EF003C02FF0260EE15C02E2E16AF1
:101D9000E552E16EE552E5CFDAFFE7CFD9FF120059
:101DA00000C02DF05BEF0FF01E0EDBCF00F01F0E1A
:101DB000DBCF01F0200EDBCF02F0210EDBCF03F0F2
:101DC000326A336A346A1200FA0EDBCF00F0FB0E7F
:101DD000DBCF01F0FC0EDBCF02F0FD0EDBCF03F01A
:101DE0001200356E59D8D3EC0FF04DD8326A336AF1
:101DF00012002DC032F02EC033F02FC034F030C0AE
:101E000035F01200DA20EA6EEECFE6FFEECFE6FF05
:101E1000EECFE6FFEFCFE6FF1200D3EC0FF01E0E81
:101E20002DC0DBFF1F0E2EC0DBFF200E2FC0DBFFFF
:101E3000210E30C0DBFF1200180EDBCF32F0190E7E
:101E4000DBCF33F01A0EDBCF34F01B0EDBCF35F0D7
:101E5000D3EF0FF030C0DBFF220EDBCF04F0230EF8
:101E6000DBCF05F0240EDBCF06F0250EDBCF07F02D
:101E70001200010EDB6A020EDB6A800EF36E030EA7
:101E8000F3CFDBFF12002DC000F02EC001F02FC0F9
:101E900002F030C003F0120004C02DF005C02EF097
:101EA00006C02FF007C030F01200D950010FE96EC4
:101EB000000E02EF0FF001C02EF002C02FF003C0A1
:101EC00030F0120071DF3F0E356ED0EF0EF091DF73
:061ED00067DF41EF10F096
:0A1ED600379E08D0379E2FAE05D0CE
:101EE0002E6C2F1EE86A2F22378E2FC029F02EC0AD
:101EF00028F03B6A3A6A8E0E2A6E2B6A1AEF11F0AE
:101F0000376A56EC11F06EEC11F037B6FEEF10F0B8
:101F100037A205D037BAFEEF10F005EF11F037BA4F
:101F200011EF11F037A005D037B8FEEF10F011EF28
:101F300011F037B805EF11F02B6A7F0E30242A6EAE
:101F4000E86A2B2235502A5EE86A2B5A1A0E386E40
:101F5000306A3A6A3B6A286A296A32502D5E3350E9
:101F60002E5A34502F5A000E305A09E732502D267F
:101F700033502E2234502F22000E302201D03A8AC4
:101F8000D8902D362E362F363036D8903A363B360E
:101F900028362936382EE1D72F502E102D10D8A4F0
:101FA0003A8A1AEF11F0376A56EC11F06EEC11F024
:101FB00037B6FEEF10F037A205D037B8FEEF10F0BD
:101FC00005EF11F037AA05D037B0FEEF10F005EF9E
:101FD00011F037B002D037A802D011EF11F02B6A00
:101FE000355030242A6EE86A2B227E0E2A5EE86A7B
:101FF0002B5A3A6A3B6A286A296A34502F02F4CF76
:1020000029F0F3CF28F033502F02F3503B26F45041
:102010002822000E292234502E02F3503B26F45081
:102020002822000E292232502F02F3503A26F45073
:102030003B22000E2822292233502E02F3503A264A
:10204000F4503B22000E2822292234502D02F35056
:102050003A26F4503B22000E2822292232502E022A
:10206000F4503A26000E3B222822292233502D021A
:10207000F4503A26000E3B22282229221AEF11F0B2
:10208000357E376A56EC11F06EEC11F037B6FEEF84
:1020900010F037A20AD037AA03D037BEFEEF10F0F7
:1020A00037A40AEF11F007EF11F037AA05D037ACCB
:1020B0000AEF11F007EF11F037A00AD037A808D0C7
:1020C00037BE04D037A402D013EF11F017EF11F090
:1020D0003A6A2B6A3550305C396E10E32DC03BF004
:1020E0002EC028F02FC029F030C038F032C02DF0BB
:1020F00033C02EF034C02FF0373A09D032C03BF055
:1021000033C028F034C029F035C038F0396C379E20
:1021100037BC378E38C02AF037B046EF11F01A0EB0
:10212000396046EF11F02A6A306A37A408D02D6C66
:102130002E1E2F1E301EE86A2E222F22302237AC90
:1021400008D03B6C281E291E2A1EE86A2822292254
:102150002A222C6A395207E030342F322E322D32A7
:102160002C32392EF9D72D503B262E5028222F50B5
:10217000292230502A222CC03AF0379E2AAE0BD0AA
:102180003A6C3B1E281E291E2A1EE86A3B22282282
:1021900029222A22378E2AA006D0D8802932283236
:1021A0003B323A32382A38C02AF01AEF11F0376A37
:1021B00056EC11F037B6E1EF10F037A20AD037B481
:1021C00003D07F0E2F6E19D0800E2F6E16D02F6A7F
:1021D00014D037B0FCD7870E3060F1D77E0E306454
:1021E000F6D7860E305C04E0D8902F32302AF9D72B
:1021F00037A403D02F6C2FAEEAD712007F0E306EBB
:10220000FF0E2F6E2E6E2D6E12007F0E37BEFF0E4C
:10221000306E02D07F0E306E800E2F6E2E6A2D6AC9
:10222000F3D737AE04D0800E306E2F6AF7D7306AFE
:102230002F6AF4D7295028103B103A10F8E02BBE33
:10224000F0D729BE0CD02A502B10EBE0D8903A36AC
:102250003B36283629362A06D8A02B06F2D72B5033
:10226000D4E12A28D2E03AAE11D07F0E3A1402E12E
:102270003BA00CD03B2AE86A2822292207E3D88019
:10228000293228323B322A2A2A28BFE02A50C9E0C4
:102290003BC02DF028C02EF029342F6E2A30306E2E
:1022A0002F32309E37BE308E04EF11F02F3630368D
:1022B00002E33784377E06E13780306A2F6A2E6A60
:1022C0002D6A1200302803E0D8802F321200D890F7
:1022D0002F3202E13782120037861200343635364B
:1022E00002E3378C377E06E13788356A346A336A11
:1022F000326A1200352803E0D88034321200D890B8
:102300003432EAE1378A1200376A56EC11F037B6F8
:102310008EEF11F037A20ED037B405D07F0E2F6E9E
:10232000FF0E2E6E1FD0800E2F6E2E6A1BD02F6ACE
:102330002E6A18D037B0FBD78F0E3060EDD77E0EE7
:102340003064F5D78E0E305C05E0D8902F322E32F7
:10235000302AF8D737A406D02E6C2F1EE86A2F2219
:102360002FAEE5D71200C5EC11F037B6000C37B030
:10237000000C37B4000C010CC5EC11F037B6000CA2
:1023800037B0000C37A4000C010C376A56EC11F082
:102390006EEC11F037B6120037AE08D037A004D07B
:1023A00037A802D037801200379012003550305CC9
:1023B0000BE134502F5C08E133502E5C05E13250C4
:1023C0002D5C02E137801200D8A002D0378E10D0E9
:1023D000305035C030F0356E2F5034C02FF0346E91
:1023E0002E5033C02EF0336E2D5032C02DF0326E91
:1023F0003550305C10E0FF0F09E0379037B403D060
:1024000037AE3784120037AE37941200352AD89091
:1024100034323332323232502D5E33502E5A3450F1
:102420002F5A2FBEEAD7D8902D362E362F36302E83
:04243000F8D7C8D73A
:0C243400D9CFE6FFE1CFD9FF080EE1266A
:1024400091EC0BF0440E97D9450E95D9460E93D9D1
:102450008B0EE66EC1EC0AF0E5528B0EE66E2AECAE
:102460000BF0E552F3CF00F0F4CF01F0F3CF2EF0F4
:10247000F4CF2FF06BEC0FF063D9BCD9EECF0CF09A
:10248000EECF0DF0EECF0EF0EFCF0FF0330E326E39
:10249000336E830E346E400E356E0CC02DF00DC0C1
:1024A0002EF00EC02FF00FC030F0D3EC0FF0A7D9F4
:1024B000D3D9440E356E80EC0FF02DC004F02EC041
:1024C00005F02FC006F030C007F0326A336A346A74
:1024D0003F0E356E40EC10F03ED90A0E326ED70E2C
:1024E000336E230E346E3C0E356E80EC0FF028D91F
:1024F000046A056AF80E066E410E076E04C0E6FF18
:1025000005C0E6FF06C0E6FFE66E74D9EECF1CF00C
:10251000EECF1DF0EECF1EF0EFCF1FF025D91CC07F
:102520002DF01DC02EF01EC02FF01FC030F040EC6B
:1025300010F02DC018F02EC019F02FC01AF030C0C6
:102540001BF08AD9BF0E356ED3EC0FF06AD952D981
:10255000EECF24F0EECF25F0EECF26F0EFCF27F030
:1025600003D924C02DF025C02EF026C02FF027C09F
:1025700030F040EC10F02DC020F02EC021F02FC024
:1025800022F030C023F056D914C02DF015C02EF023
:1025900016C02FF017C030F022D9326A336AC80E45
:1025A000346E420E356E80EC0FF04DD908D9E7CF6E
:1025B00007F0E552E7CF06F0E552E7CF05F0E55228
:1025C000E7CF04F02CC008F02DC009F02EC00AF0AF
:1025D0002FC00BF01DD904C02DF005C02EF006C091
:1025E0002FF007C030F0D3EC0FF0B5D835D93E0E40
:1025F000356EC6D8460E86D8480E346E420E44D884
:10260000480E346E420E5CD8C80E19D8440E7AD8E3
:10261000D80E346E410E38D8D80E346E410E50D8D4
:10262000480E0DD8450EE66EE3EC0AF0E552E55291
:10263000640EE66EE66A1EEC0AF0E5520DD7346EC3
:10264000420E356E80EC0FF0DAD8B9D8E7CF03F040
:10265000E552E7CF02F0E552E7CF01F0E552E7CFD0
:1026600000F02CC004F02DC005F02EC006F02FC0E5
:1026700007F0CED800C02DF001C02EF002C02FF020
:1026800003C030F0C0EF13F0356E18C02DF019C044
:102690002EF01AC02FF01BC030F040EC10F0C1D863
:1026A000DBD8BF0E356E9BD8A5D8EECF20F0EECF8D
:1026B00021F0EECF22F0EFCF23F0326A336A12001E
:1026C000356E20C02DF021C02EF022C02FF023C087
:1026D00030F040EC10F02DC01CF02EC01DF02FC0CB
:1026E0001EF030C01FF0A6D810C02DF011C02EF083
:1026F00012C02FF013C030F0D3EC0FF0A4D8326A20
:10270000336A1200E66EE3EC0AF0E552E552006A25
:10271000016AF80E026E410E036E00C0E6FF01C0B2
:10272000E6FF02C0E6FFE66E65D8EECF18F0EECF0A
:1027300019F0EECF1AF0EFCF1BF0326A336A1200B5
:102740002DC0DEFF2EC0DEFF2FC0DEFF30C0DDFF5C
:10275000DD52DD5212002DC000F02EC001F02FC05E
:1027600002F030C003F01200326A336A200E346E79
:10277000410E356E1200E66E77EC0AF0E55212005B
:10278000D3EC0FF0040E2DC0DBFF050E2EC0DBFFD7
:10279000060E2FC0DBFF070E30C0DBFF040EDBCFC1
:1027A0002DF0050EDBCF2EF0060EDBCF2FF0070E3F
:1027B000DBCF30F0D7EC10F02F50E66E12002DC0BA
:1027C000E6FF2EC0E6FF2FC0E6FF30C0E6FF88EC34
:1027D0000CF0E552E552E552E552E5521200D3EC19
:1027E0000FF02DC010F02EC011F02FC012F030C02D
:1027F00013F01200D9CFE9FFDACFEAFF12002DC0A3
:1028000008F02EC009F02FC00AF030C00BF0120003
:102810002CC032F02DC033F02EC034F02FC035F074
:1028200012002DC014F02EC015F02FC016F030C0CD
:1028300017F012002DC032F02EC033F02FC034F04C
:1028400030C035F012002DC00CF02EC00DF02FC09E
:102850000EF030C00FF01200326A336A800E346E10
:02286000120064
:0E28620096D8E1CFD9FFE2CFDAFF0C0EE124C9
:1028700002E3E168E652E16ED950FA0FE96EFF0E0D
:10288000DA20EA6E080EEECFDBFF090EEECFDBFF9B
:102890000A0EEECFDBFF0B0EEECFDBFF79D8D9505F
:1028A000080FE96E000EDA20EA6EEECFE6FFEECFFB
:1028B000E6FFEECFE6FFEFCFE6FFCDEC14F0006EC3
:1028C000060EE15C02E2E16AE552E16E0050E76E5D
:1028D000070EE7CFDBFFDB50840B3AE1070EDB048A
:1028E0001AE1060EDB5006E0006A016A026A800EF9
:1028F000036E04D0006A016A026A036A080E00C00F
:10290000DBFF090E01C0DBFF0A0E02C0DBFF0B0E6E
:1029100003C0DBFF1DD0F80EDBCF00F0F90EDBCFDC
:1029200001F0D950040FE96E000EDA20EA6E005073
:10293000EE260150ED22D950080FE66E000EDA2087
:10294000E66E26D85BEC15F0E552E552E552E5520D
:10295000080EDBCF00F0090EDBCF01F00A0EDBCF53
:1029600002F00B0EDBCF03F000C02CF001C02DF005
:1029700002C02EF003C02FF00C0EE15C02E2E16A0F
:10298000E552E16EE552E5CFDAFFE7CFD9FF12005D
:0A299000D9CFE6FFDACFE6FF120010
:06299A00D9CFE6FFDACF01
:1029A000E6FFE1CFD9FFE2CFDAFFE6520068016827
:1029B0007F0E026E036AD950FA0FE96EFF0EDA201D
:1029C000EA6EEE500016EE500116EE500216EE5072
:1029D00003166AD800C0EEFF01C0EEFF02C0EEFF92
:1029E00003C0EEFFFD0EDB50800B02E0010E01D0B4
:1029F000000EE66E59D8060EE926000EEA22E552D0
:102A0000E750EF6EFC0EDBCF00F0FD0EDBCF01F0E8
:102A1000D89000360136FC0E00C0DBFFFD0E01C071
:102A2000DBFFDB50E66E40D8040EE926000EEA22FA
:102A3000E552E750EE6EED6AFD0EDB50006E016A66
:102A4000FF0E001818E1015016E12ED8EECF00F06D
:102A5000EECF01F0EECF02F0EFCF03F00050011007
:102A60000210031006E0210E0001896F8A6B800EB0
:102A70000BD0040E09D0FD0EDB5008E115D8EE6A2C
:102A8000EE6AEE6AEE6A010EDF6E06D0020EDF6EAF
:102A90000BD8EE52EE52EE8EDF50E552E552E5CF06
:102AA000DAFFE7CFD9FF1200F80EDBCFE9FFF90E0E
:062AB000DBCFEAFF12007B
:0A2AB600D9CFE6FFDACFE6FFE1CF4B
:102AC000D9FFE2CFDAFF5BD8013411E20050FE08F3
:102AD000000E01540CE276D805E06CD8800EEE6E44
:102AE000EE6847D067D8800EEE6E7F0E0ED047D8C6
:102AF000D890015004E6010E005C000E01580BE274
:102B000061D805E057D8EE6A800EEE6E32D052D80A
:102B1000EE6AEE6A2ED047D8EECF00F0EECF01F08D
:102B2000EECF02F0EFCF03F032D800C0EEFF01C0CD
:102B3000EEFF02C0EEFF03C0EEFF21D80050010BF4
:102B400005E025D8020E3AD8EF8E04D020D8020E28
:102B500035D8EF9E14D8D8900132003218D8030E21
:102B60002DD800C0EFFF1AD804E011D8030E26D8E4
:102B7000EF8EE552E5CFDAFFE7CFD9FF120013D889
:102B8000040E1CD8EECF00F0EFCF01F01200FA0EC9
:102B9000DBCFE9FFFB0EDBCFEAFF120004D8060E05
:102BA0000DD8EF501200FC0EDBCFE9FFFD0EDBCF9E
:102BB000EAFF1200ECDFEE6AEE6A1200E926000E70
:102BC000EA221200220E0001896F8A6BCEEF15F007
:102BD0001E0EF66E100EF76E000EF86E0001090064
:102BE000F550846F0900F550856F03E1846701D0CB
:102BF0003DD00900F5507F6F0900F550806F090046
:102C0000F550816F09000900F550E96E0900F55093
:102C1000EA6E090009000900F550826F0900F550BD
:102C2000836F09000900F6CF86F0F7CF87F0F8CF61
:102C300088F07FC0F6FF80C0F7FF81C0F8FF000179
:102C4000825302E1835307E00900F550EE6E8207DC
:102C5000F8E28307F9D786C0F6FF87C0F7FF88C080
:0E2C6000F8FF00018407000E855BBFD712004D
:022C6E00D9CFBC
:102C7000E6FFDACFE6FFE1CFD9FFE2CFDAFFE65297
:102C8000E652D950FD0F006EFF0EDA2000C0DEFFC5
:102C9000DD6EDECFE9FFDDCFEAFFEF9EFA0EDBCF80
:102CA00000F0FB0EDBCF01F0FC0EDBCF02F0FD0EDF
:102CB000DBCF03F000C02CF001C02DF002C02EF0DD
:102CC00003C02FF0E552E552E552E5CFDAFFE7CF3A
:042CD000D9FF120016
:0C2CD4002B6A2A6A296A286A200EE76E23
:102CE000D8902C362D362E362F36283629362A36D1
:102CF0002B363150285C3250295833502A583450E2
:102D00002B5809E33150285E3250295A33502A5A41
:0C2D100034502B5A2C2AE72EE4D7120076
:042D1C00D9CFE6FF26
:102D2000DACFE6FFE1CFD9FFE2CFDAFFFD0EDB50CD
:102D3000360BB16EB36AB26AA192FD0EDBAE02D061
:102D4000A08201D0A092DBA002D0B18E01D0B19EB2
:0E2D5000B180E552E5CFDAFFE7CFD9FF1200E0
:022D5E00D9CFCB
:102D6000E6FFDACFE6FFE1CFD9FFE2CFDAFFF0925C
:102D7000FD0EDBA202D0F18801D0F1989484DBAC87
:102D800002D0F08E01D0F09EDBAE02D0F08801D0F0
:0E2D9000F098E552E5CFDAFFE7CFD9FF120049
:022D9E00D9CF8B
:102DA000E6FFDACFE6FFE1CFD9FFE2CFDAFFF0901E
:102DB000FD0EDBA202D0F18A01D0F19A9482DBAC45
:102DC00002D0F08C01D0F09CDBAE02D0F08601D0B6
:0E2DD000F096E552E5CFDAFFE7CFD9FF12000B
:022DDE00D9CF4B
:102DE000E6FFDACFE6FFE1CFD9FFE2CFDAFFE65226
:102DF0008150DF6EFD0EDBA002D0F18E01D0F19E7E
:102E0000DBAE02D0F28601D0F296E552E552E5CF74
:082E1000DAFFE7CFD9FF120041
:082E1800D9CFE6FFDACFE6FF97
:102E2000E1CFD9FFE2CFDAFFE652E652FC0EDBCF6C
:102E3000DEFFDBCFDDFF010EDB50B36EDF50B26E85
:102E4000E552E552E552E5CFDAFFE7CFD9FF1200B0
:102E5000D9CFE6FFDACFE6FFE1CFD9FFE2CFDAFF45
:102E6000E652E652FC0EDBCFDEFFDBCFDDFF010ECC
:102E7000DB50D76EDF50D66EE552E552E552E5CF16
:082E8000DAFFE7CFD9FF1200D1
:082E8800D9CFE6FFDACFE6FF27
:102E9000E1CFD9FFE2CFDAFFFD0EDB507F0BD56E1D
:102EA000D76AD66AF294FD0EDBAE02D0F28A01D068
:102EB000F29AD58EE552E5CFDAFFE7CFD9FF1200BF
:102EC000D9CFE6FFDACFE6FFE1CFD9FFE2CFDAFFD5
:102ED000FD0EDB50FB0BCA6ECC6A9E92FD0EDBAE84
:102EE00002D09D8201D09D92CA84E552E5CFDAFFDF
:062EF000E7CFD9FF12003C
:0A2EF600FF0EE350416EEF0E01D015
:102F0000F30EE76EE72E82EF17F00C0E406EE76AC5
:102F1000E72E88EF17F0402E87EF17F0412E80EF55
:042F200017F0120094
:0C2F2400D9CFE6FFDACFE6FFE1CFD9FFFE
:102F3000E2CFDAFFC30EC214006EFD0EDB407F0B42
:102F40003C0B0010C26EE552E5CFDAFFE7CFD9FFA8
:022F500012006D
:0E2F5200000EF36E00EE00F0030E01D8120028
:102F6000EA6002D0EE6AFCD7F350E9601200EE6A24
:022F7000FCD78C
:0E2F720011EE00F021EE00F0F86A379CE8EC5A
:0E2F800015F003EC08F01AEC12F0FBD712006B
:022F8E00FF0E34
:102F9000E350416E1B0E00D001D0200EE76EE72EED
:0A2FA000FED7412EFAD700D0120030
:062FAA002B6A080EE76E21
:102FB000D8902F362B3634502B5C02E32B6E2F2A01
:062FC000E72EF7D7120016
:0A2FC600FF0EE350E84E1200000079
:0C2FD00000D000D000D0E82EFAD712008C
:042FDC00C450036E6C
:0E2FE000026AC3500210F36E03C0F4FF120029
:022FEE00CD9084
:042FF0009D9012009E
:042FF400C282120083
:082FF8000000000000000000D1
:103000000000000000000100000000E803000000D4
:0730100000000000000000B9
:02301700F401C2
:00000001FF
