:020000040000FA
:06000000C7EF19F0120029
:06100000C7EF19F0120019
:021006001200D6
:061008001CEF08F01200CD
:02100E00C250CE
:08101000020B01E0010E1200C9
:0610180075EF08F0120064
:02101E000200CE
:10102000333400007F000000120000001434000080
:08103000600000001F00000039
:08103800DACFE4FFE2CFDAFF9A
:10104000E9CFE4FFEACFE4FFF6CFE4FFF7CFE4FF18
:10105000F5CFE4FFF3CFE4FFF4CFE4FFFACFE4FFF2
:1010600000EE1DF0140EE80403E3EECFE4FFFBD71F
:1010700000EE00F01D0EE80403E3EECFE4FFFBD723
:10108000E652F250200B0DE0F250040B0AE0F2940D
:10109000D50E70EC0CF000016A2B000E6B236C2354
:1010A0006D23E55200EE1CF01D0EE80403E3E5CFCE
:1010B000EDFFFBD700EE30F0140EE80403E3E5CFBC
:1010C000EDFFFBD7E5CFFAFFE5CFF4FFE5CFF3FF68
:1010D000E5CFF5FFE5CFF7FFE5CFF6FFE5CFEAFF78
:1010E000E5CFE9FFE5CFDAFF1100D8CFE4FFE0CF8D
:1010F000E4FFE46EDACFE4FFE2CFDAFFE9CFE4FF0A
:10110000EACFE4FFF6CFE4FFF7CFE4FFF5CFE4FF4B
:10111000F3CFE4FFF4CFE4FFFACFE4FF00EE1DF0DD
:10112000140EE80403E3EECFE4FFFBD700EE00F07B
:101130001D0EE80403E3EECFE4FFFBD7E6529D501B
:10114000020B01E18ED09E50020B01E18AD09E92EB
:1011500000016929316E1F0E326E32C029F031C094
:1011600024F0E3EC19F020C069F00001685101E1BE
:1011700013D1000168A10CD0000160510001695D2C
:1011800002E2010E01D0000EE8B08B80E8A08B9047
:10119000000168A30CD0000161510001695D02E209
:1011A000010E01D0000EE8B08B82E8A08B92000106
:1011B00068A50CD0000162510001695D02E2010ED8
:1011C00001D0000EE8B08B84E8A08B94000168A7E2
:1011D0000CD0000163510001695D02E2010E01D0F3
:1011E000000EE8B08B86E8A08B96000168A90CD0B1
:1011F000000164510001695D02E2010E01D0000EA0
:10120000E8B08B88E8A08B98000168AB0CD0000197
:1012100065510001695D02E2010E01D0000EE8B0E7
:101220008B8AE8A08B9A000168AD0CD00001665152
:101230000001695D02E2010E01D0000EE8B08B8C66
:10124000E8A08B9C000168AF0CD000016751000141
:10125000695D02E2010E01D0000EE8B08B8EE8A0BD
:101260008B9EA050020B62E0A150020B5FE0A192A6
:10127000D50EE66ED10EE66E04EC19F0E552E5529D
:1012800000016E5129E080B61FD06FC031F070C0F0
:1012900032F071C033F072C034F0B80E31260B0E4C
:1012A0003222000E3322000E342200016A51315CDA
:1012B00000016B51325800016C51335800016D51DF
:1012C000345801E2FF0008D06AC06FF06BC070F0C4
:1012D0006CC071F06DC072F000017751781126E09A
:1012E0006AC021F06BC022F06CC023F06DC024F006
:1012F00073C026F074C027F075C028F076C029F0BE
:1013000062EC18F01DC031F01EC032F01FC033F087
:1013100020C034F0315032103310341007E105D0C2
:1013200078C0FAFF00017751F96EFADFF050080B30
:101330000FE0F050010B0CE0F09000017B517C11AC
:1013400007E005D07CC0FAFF00017B51F96EFADF9F
:10135000F050100B0FE0F050020B0CE0F092000187
:101360007D517E1107E005D07EC0FAFF00017D515E
:10137000F96EFADFF250080B0FE0F250010B0CE0AF
:10138000F290000179517A1107E005D07AC0FAFF96
:1013900000017951F96EFADFE55200EE1CF01D0EE6
:1013A000E80403E3E5CFEDFFFBD700EE30F0140EC9
:1013B000E80403E3E5CFEDFFFBD7E5CFFAFFE5CF88
:1013C000F4FFE5CFF3FFE5CFF5FFE5CFF7FFE5CF7E
:1013D000F6FFE5CFEAFFE5CFE9FFE5CFDAFFE5501D
:1013E000E5CFE0FFE5CFD8FF10006AC021F06BC069
:1013F00022F06CC023F06DC024F012000000000049
:1014000000000000000000000000000000000000DC
:1014100000000000000000000000000000000000CC
:1014200012000000000000000000000000000000AA
:1014300000000000000000000000120064DA3DDA45
:1014400010E0570EE66ED5EC19F0E552040EE66E8C
:10145000F1EC19F0E552FD0EDB06FE0EF0E2DB06C4
:10146000EED723D250DA29DA07E0DBDFFD0EDB0608
:10147000FE0EF9E2DB06F7D718D245DA1EDA0EE0E7
:101480003DDA3CDA3BDA6A0EE66E73EC19F0E552AF
:10149000FD0EDB06FE0EF2E2DB06F0D706D20F0EE3
:1014A00027D2050E25D2F9D9DBAC14D0010EDF52BC
:1014B00004E0DFCFF3FFFDD9FEE1E81C9416010E36
:1014C000DF5204E0DFCFF3FFF4D9FEE1E81C0001B6
:1014D00068170BD0DBAA09D0010EDF5204E0DFCF82
:1014E000F3FFE7D9FEE1E81C9316E552DED1D5D92A
:1014F000DBAC14D0010EDF5204E0DFCFF3FFD9D90B
:10150000FEE1E81C9416010EDF5204E0DFCFF3FF8A
:10151000D0D9FEE100016813D9D9EF6AE552C5D1EF
:10152000BCD9DBAC09D0010EDF5204E0DFCFF3FF02
:10153000C0D9FEE194120AD0DBAA08D0010EDF5216
:1015400004E0DFCFF3FFB5D9FEE19312FE0EDB50CE
:10155000250A14E0010A10E0670A0CE0010A08E01D
:10156000030A04E0010A0BE17E9809D07E9A07D0B5
:101570007E9C05D07E9E03D07F9401D07F96E5525D
:1015800094D1ABD9DBAE1ED0DB508B0A19E0010A37
:1015900014E00D0A0FE0010A0AE0030A05E0010A5F
:1015A00011E17E8894800ED07E8A94820BD07E8C4E
:1015B000948408D07E8E948605D07F84938802D050
:1015C0007F86938A72D169D9DBAC2AD0010EDF52B3
:1015D00004E0DFCFF3FF6DD9FEE10001681509E0FB
:1015E000FD0EDB501F0BE66E71D9E552E750EF6E32
:1015F0002FD0FD0EDB5009E0010EDF5204E0DFCFFB
:10160000F3FF57D9FEE18B1009D0010EDF5204E041
:10161000DFCFF3FF4ED9FEE1E81C8B148B6E18D0A0
:10162000DBAA16D0FD0EDB5009E0010EDF5204E00C
:10163000DFCFF3FF3ED9FEE18A1009D0010EDF5261
:1016400004E0DFCFF3FF35D9FEE1E81C8A148A6E8F
:10165000E5522BD122D9DBAC17D0010EDF5204E0CA
:10166000DFCFF3FF26D9FEE10001681503E02ED994
:10167000EF5023D08250DF5212E0DFCFF3FFE83289
:101680007F0BF306FCE10BD0DBAA0BD08150DF52BD
:1016900006E0DFCFF3FFE8327F0BF306FCE1010B3E
:1016A0000CD0DBA80FD08050DF5206E0DFCFF3FF75
:1016B000E8327F0BF306FCE1010B016AF36E01C017
:1016C000F4FF0FD0DF50080DF350E66E8AEC19F0EE
:1016D000E55208EC1AF007EC08F00009FCE1FCEC1C
:1016E00019F0E552E2D0000168511200D6D8DBAA09
:1016F00008D0010EDF5204E0DFCFF3FFDAD8FEE1BD
:101700007812E552D2D0C9D8DBAA09D0010EDF5237
:1017100004E0DFCFF3FFCDD8FEE1E81C7816E552F8
:10172000C4D0946A93680D0EC26EC16AAF0EC06ECB
:101730007E6A7F6A9F0EE66E3CEC19F0E552F184FA
:10174000200ECED8BC0EE66E58EC19F0E5529F92F2
:10175000CD0EE66E86EC18F0E552A292200EE66EF3
:10176000D10EE66E04EC19F0E552E55205EC1AF0E4
:10177000D08EF28CF28EF19E120080A6010C000C2D
:10178000C2D8F90EDBCF77F0FA0EDBCF78F0FB0E84
:10179000DBCF00F0FC0EDBCF01F0FD0EDBCF02F063
:1017A000FE0EDBCF03F000500110021003100BE11E
:1017B000010EF36EFB0EF3CFDBFFFC0EDB6AFD0EBA
:1017C000DB6AFE0EDB6AFB0EDBCF73F0FC0EDBCFB9
:1017D00074F0FD0EDBCF75F0FE0EDBCF76F065D03A
:1017E0000001776B786B12008ED8FD0EDBCF79F09D
:1017F000FE0EDBCF7AF0E66EE7EC18F0E552F190E2
:10180000798653D00001796B7A6B7996F296F18ED6
:10181000120063D8DB50020A12E0030A22E1FB0E39
:10182000DBCF7BF0FC0EDBCF7CF0FD0EDB50BF0B83
:10183000FE0BE66EC7EC18F0E552410E0FD0FB0E22
:10184000DBCF7DF0FC0EDBCF7EF0FD0EDB50BF0B5F
:10185000FE0BE66EA7EC18F0E552420EE66E60DE77
:10186000E55223D03AD8DB50020A07E0030A09E127
:1018700000017B6B7C6BF09604D000017D6B7E6B6E
:10188000F09813D00001010E6E6F6F6B706B716B6F
:10189000726B120000016E6B120035D8E652FE0E1C
:1018A000DB500F0BDF6EFE0E1200E552E7CFD9FFC3
:1018B0001200E846FE0BF3061200D950FD0FE96E48
:1018C000FF0EDA20EA6EEE50ED101200DF50EA6AE9
:1018D000600FE96E000EEA22120015D8FE0E12000B
:1018E000E66ED10EE66E20EC19F0E552E5521200DC
:1018F000E66EE66AA3DDE552E5521200E66A73EC95
:1019000019F0E5521200D9CFE6FFE1CFD9FF12005E
:101910002C9E05D02C9E24AE02D0246C2C8E24C08C
:101920001EF01D6A306A2F6A860E1F6E206A33EF22
:101930000EF02A7E2C6A6FEC0EF087EC0EF02CB6BF
:1019400017EF0EF02CA20AD02CAA03D02CBE17EF52
:101950000EF02CA423EF0EF020EF0EF02CAA05D0F1
:101960002CAC23EF0EF020EF0EF02CA00AD02CA808
:1019700008D02CBE04D02CA402D02CEF0EF030EFF7
:101980000EF02F6A206A2A50255C2E6E10E322C0CA
:1019900030F023C01DF024C01EF025C02DF027C05C
:1019A00022F028C023F029C024F02C3A09D027C007
:1019B00030F028C01DF029C01EF02AC02DF02E6C7A
:1019C0002C9E2CBC2C8E2DC01FF02CB05FEF0EF087
:1019D0001A0E2E605FEF0EF01F6A256A2CA408D045
:1019E000226C231E241E251EE86A2322242225227F
:1019F0002CAC08D0306C1D1E1E1E1F1EE86A1D2256
:101A00001E221F22216A2E5207E02534243223325F
:101A1000223221322E2EF9D72250302623501D2279
:101A200024501E2225501F2221C02FF02C9E1FAEB5
:101A30000BD02F6C301E1D1E1E1E1F1EE86A30228A
:101A40001D221E221F222C8E1FA006D0D8801E32DF
:101A50001D3230322F322D2A2DC01FF033EF0EF001
:101A60002C6A6FEC0EF087EC0EF02CB617EF0EF030
:101A70002CA205D02CBA17EF0EF01EEF0EF02CBAE8
:101A80002AEF0EF02CA005D02CB817EF0EF02AEF9D
:101A90000EF02CB81EEF0EF0206A7F0E25241F6E6C
:101AA000E86A20222A501F5EE86A205A1A0E2D6E1C
:101AB000256A2F6A306A1D6A1E6A2750225E2850E6
:101AC000235A2950245A000E255A09E72750222666
:101AD0002850232229502422000E252201D02F8AAB
:101AE000D8902236233624362536D8902F363036F5
:101AF0001D361E362D2EE1D7245023102210D8A4D7
:101B00002F8A33EF0EF02C6A6FEC0EF087EC0EF09C
:101B10002CB617EF0EF02CA205D02CB817EF0EF054
:101B20001EEF0EF02CAA05D02CB017EF0EF01EEF12
:101B30000EF02CB002D02CA802D02AEF0EF0206AB2
:101B40002A5025241F6EE86A20227E0E1F5EE86A56
:101B5000205A2F6A306A1D6A1E6A29502402F4CF67
:101B60001EF0F3CF1DF028502402F3503026F4501D
:101B70001D22000E1E2229502302F3503026F4505D
:101B80001D22000E1E2227502402F3502F26F4504F
:101B90003022000E1D221E2228502302F3502F2631
:101BA000F4503022000E1D221E2229502202F35032
:101BB0002F26F4503022000E1D221E222750230211
:101BC000F4502F26000E30221D221E222850220201
:101BD000F4502F26000E30221D221E2233EF0EF06D
:101BE0002C6A6FEC0EF02CB6FAEF0DF02CA20AD096
:101BF0002CB403D07F0E246E19D0800E246E16D024
:101C0000246A14D02CB0FCD7870E2560F1D77E0E45
:101C10002564F6D7860E255C04E0D8902432252A68
:101C2000F9D72CA403D0246C24AEEAD712007F0E7F
:101C3000256EFF0E246E236E226E12007F0E2CBEC8
:101C4000FF0E256E02D07F0E256E800E246E236A55
:101C5000226AF3D72CAE04D0800E256E246AF7D703
:101C6000256A246AF4D71E501D1030102F10F8E09A
:101C700020BEF0D71EBE0CD01F502010EBE0D89035
:101C80002F3630361D361E361F06D8A02006F2D756
:101C90002050D4E11F28D2E02FAE11D07F0E2F1498
:101CA00002E130A00CD0302AE86A1D221E2207E390
:101CB000D8801E321D3230321F2A1F28BFE01F502D
:101CC000C9E030C022F01DC023F01E34246E1F3046
:101CD000256E2432259E2CBE258E1DEF0EF0243657
:101CE000253602E32C842C7E06E12C80256A246AAA
:101CF000236A226A1200252803E0D88024321200C9
:101D0000D890243202E12C8212002C86120029364F
:101D10002A3602E32C8C2C7E06E12C882A6A296A5A
:101D2000286A276A12002A2803E0D8802932120084
:101D3000D8902932EAE12C8A12002C9E08D02C9EE1
:101D400024AE05D0236C241EE86A24222C8E24C0E5
:101D50001EF023C01DF0306A2F6A8E0E1F6E206A9F
:101D600033EF0EF02C9E0CD02C9E24AE09D0216CAB
:101D7000221E231E241EE86A2222232224222C8EC5
:101D800024C01EF023C01DF022C030F021C02FF06F
:101D90009E0E1F6E206A33EF0EF02C6A6FEC0EF071
:101DA0002CB6D7EF0EF02CA20ED02CB405D07F0E9F
:101DB000246EFF0E236E1FD0800E246E236A1BD06C
:101DC000246A236A18D02CB0FBD78F0E2560EDD77C
:101DD0007E0E2564F5D78E0E255C05E0D890243262
:101DE0002332252AF8D72CA406D0236C241EE86AB7
:101DF000242224AEE5D712002C6A6FEC0EF02CB62C
:101E000006EF0FF02CA20FD02CB407D07F0E246E5B
:101E1000FF0E236E226E216E25D0800E246E01D01F
:101E2000246A000EF6D72CB0FBD7216A9F0E2560DE
:101E3000EBD77E0E2564F4D79E0E255C07E0D89084
:101E40002432233222322132252AF6D72CA40AD07A
:101E5000216C221E231E241EE86A22222322242211
:101E600024AEDED712003CEC0FF02CB6000C2CB0E8
:101E7000000C2CA4000C010C2C6A6FEC0EF087EC0B
:101E80000EF02CB612002CAE08D02CA004D02CA83A
:101E900002D02C8012002C9012002A50255C0BE1FD
:101EA0002950245C08E12850235C05E12750225C7E
:101EB00002E12C801200D8A002D02C8E10D0255028
:101EC0002AC025F02A6E245029C024F0296E235000
:101ED00028C023F0286E225027C022F0276E2A50F7
:101EE000255C10E0FF0F09E02C902CB403D02CAE41
:101EF0002C8412002CAE2C9412002A2AD89029325D
:101F0000283227322750225E2850235A2950245A3B
:101F100024BEEAD7D890223623362436252EF8D789
:101F2000C8D72B6A29AE9AEF0FF0286C291EE86AF1
:101F300029222B1E24AEA2EF0FF0236C241EE86A88
:101F400024222B1EA1EC19F024BEB2EF0FF02BAE11
:101F5000000C236C241EE86A24221F6C201EE86AF1
:0E1F60002022000C2BBEA9EF0FF02C88FF0CE6
:021F6E00D9CFC9
:101F7000E6FFDACFE6FFE1CFD9FFE2CFDAFF220EAC
:101F8000E12402E3E168E652E16ED950130FE66EF8
:101F9000000EDA20E66EA8DA9DEC16F0006E060E52
:101FA000E15C02E2E16AE552E16E0050E76E0E0E7E
:101FB000E7CFDBFFDB50840B0CE0210E00019B6FB1
:101FC0009C6B0F0EDB68100EDB68110EDB687F0E5A
:101FD0006ED08ADA36DA020E21C0DBFF030E22C091
:101FE000DBFF040E23C0DBFF050E24C0DBFF87DA16
:101FF000276A100E286E490E296E460E14DA33EC4D
:102000000FF0010A32E07BDA67DA0DDA30EC0DF01E
:10201000BFD9060EDBCF22F0070EDBCF23F0080E70
:10202000DBCF24F0090EDBCF25F0FCEC0EF0B4EC96
:102030000EF0AED964DA060EDBCF08F0070EDBCF68
:1020400009F0080EDBCF0AF0090EDBCF0BF044DA03
:102050002A6E08C022F009C023F00AC024F00BC089
:1020600025F048DA99EC0CF0C4D9F90EDB5012E0F7
:102070000E0EDB040BE1FA0EDBCF00F0FB0EDBCF24
:1020800001F0FC0EDBCF02F0FD0E52D167D9296AB8
:10209000F8D947D00E0EDB0419E10F0EDB6A100EE3
:1020A000DB6A800EF36E110EF3CFDBFF3F0EF36E93
:1020B000120EF3CFDBFF0F0EDBCF00F0100EDBCFE5
:1020C00001F0110EDBCF02F0120E32D1190EDB6AD5
:1020D00045D9800E296ED5D9006A016A026A3F0E81
:1020E000036ED950060FE96E000EDA20EA6EEECFCD
:1020F00022F0EECF23F0EECF24F0EFCF25F000C09A
:1021000027F001C028F002C029F003C02AF099ECA2
:102110000CF025C0EDFF24C0EDFF23C0EDFF22C071
:10212000EFFFDF50010B0AE0190EDB5002E0000E5A
:1021300001D0010EE76E190EE7CFDBFF8CD9060E3A
:10214000DBCF0CF0070EDBCF0DF0080EDBCF0EF06F
:10215000090EDBCF0FF0276A286A490E296E400E60
:102160002A6E0CC022F00DC023F00EC024F00FC068
:1021700025F083EC0DF05CD9A6D995D999EC0CF03B
:1021800077D9060EDBCF14F0070EDBCF15F0080E63
:10219000DBCF16F0090EDBCF17F0220E276EAA0E4A
:1021A000286E7D0E296E3A0E2A6E14C022F015C0DC
:1021B00023F016C024F017C025F083EC0DF022C0E8
:1021C00010F023C011F024C012F025C013F0EDD898
:1021D00099EC0CF00A0E22C0DBFF0B0E23C0DBFFD4
:1021E0000C0E24C0DBFF0D0E25C0DBFFD9500A0FFB
:1021F000E96E000EEAD825D921C000F022C001F016
:1022000023C002F024C003F0276A286A800E296EDA
:10221000390E2A6E21C022F04FD933EC0FF0010A9B
:1022200013E1D9500A0FE96E000EDA20EA6E020EB1
:10223000EECFDBFF030EEECFDBFF040EEECFDBFFB6
:10224000050EEECFDBFF68D0E1D80A0EDBCF27F01A
:102250000B0EDBCF28F00C0EDBCF29F00D0EDBCF01
:102260002AF083EC0DF01A0E22C0DBFF1B0E23C0F8
:10227000DBFF1C0E24C0DBFF1D0E25C0DBFF5B0E49
:10228000226E9C0E236E2E0E246E360E256E72D894
:10229000CFD8220E276EB20E286E4F0E296EB90EC1
:1022A00032D99ED83E0E276E870E286E080E296EF4
:1022B0003C0E29D9DDD8A40E276EAA0E286E2A0E50
:1022C000296EBE0E20D91E0E22C0DBFF1F0E23C0BA
:1022D000DBFF200E24C0DBFF210E25C0DBFF0A0E32
:1022E000DBCF00F00B0EDBCF01F00C0EDBCF02F0EA
:1022F0000D0EDBCF03F08AD81E0EDBCF27F01F0EAA
:10230000DBCF28F0200EDBCF29F0210EDBCF2AF027
:10231000F1D89AEC0CF06DD8190EDB5008E09BD880
:10232000276A286A800E296EBF0EF0D803D042D8E3
:10233000DBCF03F000C021F001C022F002C023F087
:1023400003C024F0220EE15C02E2E16AE552E16E94
:10235000E552E5CFDAFFE7CFD9FF12007CD8830E34
:10236000276EF90E286EA20E296E3E0ECFD8276A70
:10237000286A12001A0EDBCF27F01B0EDBCF28F0E5
:102380001C0EDBCF29F01D0EDBCF2AF083EF0DF002
:10239000060E22C0DBFF070E23C0DBFF080E24C0A1
:1023A000DBFF090E25C0DBFF12008DD800C022F034
:1023B0005CEF12F0020EDBCF00F0030EDBCF01F07A
:1023C000040EDBCF02F0050E1200DA20EA6EEECF2B
:1023D000E6FFEECFE6FFEECFE6FFEFCFE6FF12001F
:1023E00022C004F023C005F024C006F025C007F089
:1023F0001200020E22C0DBFF030E23C0DBFF040E1F
:1024000024C0DBFF050E25C0DBFF12000A0EDBCF68
:1024100022F00B0EDBCF23F00C0EDBCF24F00D0EE1
:10242000DBCF25F012002A6E00C022F05CEF12F024
:1024300022C008F023C009F024C00AF025C00BF028
:10244000120007EC18F0E552E552E552E552120091
:102450002A6E9AEF0CF0020EDBCF04F0030EDBCFF6
:1024600005F0040EDBCF06F0050EDBCF07F01200FF
:1024700022C000F023C001F024C002F025C003F008
:1024800012003F0EE5DFCDEC0EF023C0DEFF24C0CE
:10249000DDFF000EDFCF23F0010EDBCF24F09FEC39
:1024A0000EF0C8EF11F004C022F005C023F006C002
:1024B00024F007C025F0120001C023F002C024F070
:1024C00003C025F0120022C027F023C028F024C04A
:1024D00029F025C02AF01200DB0E276E0F0E286EA1
:1024E000C90E296E400E1200D950FA0FE96EFF0E88
:1024F000E5EF11F083EC0DF073DFD5EF11F05ADF4B
:10250000DBCF03F01200A4DFBAEF11F02A6ECBDFAD
:0825100083EC0DF038EF12F02E
:08251800D9CFE6FFDACFE6FFA0
:10252000E1CFD9FFE2CFDAFF240EE12402E3E16834
:10253000E652E16ED950FA0FE96EFF0EDA20EA6E2C
:10254000020EEECFDBFF030EEECFDBFF040EEECF6D
:10255000DBFF050EEECFDBFFE8D9F2D99DEC16F0DC
:10256000006E060EE15C02E2E16AE552E16E0050A7
:10257000E76E0D0EE7CFDBFFDB50800815E0A0D93A
:10258000276A286A296A2A6A00C022F001C023F05B
:1025900002C024F003C025F033EC0FF0010A10E173
:1025A000210E00019B6F9C6B020EDB68030EDB6843
:1025B000040EDB687F0EF36E050EF3CFDBFF66D1F2
:1025C0000D0EDB50050B01E061D10A0EDBCF00F0F0
:1025D0000B0EDBCF01F0830E0026FF0E012200C0A0
:1025E000DEFF01C0DDFFD950060F65D976D9DF5077
:1025F000010B0FE0DF06010E01E2DB06D950180FD8
:102600005AD9D890EF36010EEB36020EEB36030E98
:10261000EB36D9CFE9FFDACFEAFF020E286E296A3E
:10262000EECF23F0EDCF24F091EC0FF023C0EEFFBE
:1026300024C0EDFF140EDB6A150EDB6A160EDB6A92
:10264000170EDB6A1C0EDB6A1D0EDB6A1E0EDB6AD0
:10265000010EF36E1F0EF3CFDBFF010EF36E0E0EB5
:10266000F3CFDBFF0F0EDB6A0E0EDBCF00F00F0E99
:10267000DBCF01F0D890015004E61A0E005C000E8A
:10268000015801E398D0180EDBCF00F0190EDBCF14
:1026900001F01A0EDBCF02F01B0EDBCF03F0010EB0
:1026A0001F0B07E0D8900036013602360336E806E5
:1026B000F9E1180E00C0DBFF190E01C0DBFF1A0E96
:1026C00002C0DBFF1B0E03C0DBFF140EDBCF08F0E4
:1026D000150EDBCF09F0160EDBCF0AF0170EDBCF9D
:1026E0000BF0010E1F0B07E0D890083609360A36AA
:1026F0000B36E806F9E1D9501C0FDDD80850EE245E
:10270000046E0950EE20056E0A50EE20066E0B5046
:10271000EE20076ED950180FCED80450EE5C006E34
:102720000550EE58016E0650EE58026E0750EE58F6
:10273000036E200E00C0DBFF210E01C0DBFF220E66
:1027400002C0DBFF230E03C0DBFF200EDBCF22F035
:10275000210EDBCF23F0220EDBCF24F0230EDBCFC4
:1027600025F02534000E251809E6D880000E2254E5
:10277000000E2354000E2454000E255411E2D950AB
:10278000200F99D8AAD8D8D81C0EDB50EE121D0EF7
:10279000DB50EE121E0EDB50EE121F0EDB50EE125F
:1027A000D9501C0F88D8AFD80E0EDB2A0F0E01E2CD
:1027B0005BD7DB2A59D7C9D8100E00C0DBFF110E3A
:1027C00001C0DBFF180EDBCF23F0190EDBCF24F0A6
:1027D000120E23C0DBFF130E24C0DBFFADD893D84D
:1027E000D950100F68D8EE50ED1012E0D950120FEA
:1027F00062D8EE50ED1006E1A8D80050011002108A
:10280000031006E099D8EE2A000EEE22EE22EE2208
:102810000C0EDB6A91D8060EEECFDBFF070EEECF73
:10282000DBFF080EEECFDBFF090EEECFDBFF7E0EE7
:10283000F36E0A0EF3CFDBFF0B0EDB6AD950020FEB
:10284000E66E000EDA20E66E70D82BEC17F0E5523B
:10285000E552E552E552DECFE6FFDDCFE6FF70D868
:1028600001EC16F0006E060EE15C02E2E16AE55250
:10287000E16E0050020E21C0DBFF030E22C0DBFF21
:10288000040E23C0DBFF050E24C0DBFF19D800C0F7
:1028900021F001C022F002C023F003C024F0240E76
:1028A000E15C02E2E16AE552E16EE552E5CFDAFF72
:1028B000E7CFD9FF1200E96E000EDA20EA6E1200AF
:1028C000020EDBCF00F0030EDBCF01F0040EDBCFF6
:1028D00002F0050EDBCF03F01200180EEECFDBFF87
:1028E000190EEECFDBFF1A0EEECFDBFF1B0EEECF85
:1028F000DBFF1200EECFE6FFEECFE6FFEECFE6FF06
:10290000EFCFE6FF1200D890030EEB32020EEB324F
:10291000010EEB32EF321200EE500016EE500116AF
:10292000EE500216EE5003161200D950060FE66E56
:10293000000EDA20E66E1200D950140F5BEF14F08F
:10294000D950020FB8DF7AEF14F0010E006E016A61
:0A295000026A036AF1DF8CEF14F055
:06295A00D9CFE6FFE1CF3A
:10296000D9FF090EE126010EDB6A020EDB6A030EB7
:10297000DB6A040EDB6A91EC0BF0DF6A080EDF5CA9
:1029800006E22FD977EC0AF0E552DF2AF7D7DF6AA3
:10299000080EDF5C01E3EAD0C30E106EF50E116E77
:1029A000480E126E3F0E136EDFCF18F018C024F0E1
:1029B00088EC0CF022C014F023C015F024C016F0EF
:1029C00025C017F022C027F023C028F024C029F02A
:1029D00025C02AF010C022F011C023F012C024F04C
:1029E00013C025F083EC0DF022C00CF023C00DF0D5
:1029F00024C00EF025C00FF0010EDBCF19F0020E3F
:102A0000DBCF1AF0030EDBCF1BF0040EDBCF1CF084
:102A100019C027F01AC028F01BC029F01CC02AF0EA
:102A20009AEC0CF022C008F023C009F024C00AF090
:102A300025C00BF022C0E6FF23C0E6FF24C0E6FF5E
:102A400025C0E6FF3AEC18F0E552E552E552E552B2
:102A500021C004F022C005F023C006F024C007F016
:102A6000276A286A800E296E3F0E2A6E21C022F046
:102A700005C023F006C024F007C025F09AEC0CF046
:102A800022C000F023C001F024C002F025C003F0F2
:102A9000276A286A296A400E2A6E30EC0DF094D815
:102AA000D950050FE96EDACFEAFFEECFE6FFEECFA1
:102AB000E6FFEECFE6FFEFCFE6FF8CEC12F0E5523B
:102AC000E552E552E55221C000F022C001F023C0DA
:102AD00002F024C003F0276A286AF80E296E410E1E
:102AE0002A6E21C022F086D883EC0DF06DD8DF501D
:102AF000EA6A890FE96E000EEA22EF5020E1006ACF
:102B0000016AF80E026E410E036E050EDBCF04F073
:102B1000060EDBCF05F0070EDBCF06F0080EDBCF8D
:102B200007F004C027F005C028F006C029F007C050
:102B30002AF000C022F05ED899EC0CF045D8050EC2
:102B4000DBCF22F0060EDBCF23F0070EDBCF24F025
:102B5000080EDBCF25F0F0EC0DF02450E66E41D8E6
:102B6000E3EC0AF0E552E552DF2A12D70A0EE66ED0
:102B7000E66A1EEC0AF0E552E552CD0E006ECC0E70
:102B8000016E026E3D0E036ED950010FE96EDACF71
:102B9000EAFFEECF22F0EECF23F0EECF24F0EFCF1E
:102BA00025F000C027F001C028F002C029F003C0C2
:102BB0002AF09AEC0CF025C0EDFF24C0EDFF23C0F5
:102BC000EDFF22C0EFFFE3D6050E22C0DBFF060EAD
:102BD00023C0DBFF070E24C0DBFF080E25C0DBFF90
:102BE0001200DF50EA6A810FE96E000EEA22EF5010
:102BF000E66E120001C023F002C024F003C025F0ED
:022C00001200C0
:0E2C020096D8E1CFD9FFE2CFDAFF0C0EE12425
:102C100002E3E168E652E16ED950FA0FE96EFF0E69
:102C2000DA20EA6E080EEECFDBFF090EEECFDBFFF7
:102C30000A0EEECFDBFF0B0EEECFDBFF79D8D950BB
:102C4000080FE96E000EDA20EA6EEECFE6FFEECF57
:102C5000E6FFEECFE6FFEFCFE6FF9DEC16F0006E4D
:102C6000060EE15C02E2E16AE552E16E0050E76EB9
:102C7000070EE7CFDBFFDB50840B3AE1070EDB04E6
:102C80001AE1060EDB5006E0006A016A026A800E55
:102C9000036E04D0006A016A026A036A080E00C06B
:102CA000DBFF090E01C0DBFF0A0E02C0DBFF0B0ECB
:102CB00003C0DBFF1DD0F80EDBCF00F0F90EDBCF39
:102CC00001F0D950040FE96E000EDA20EA6E0050D0
:102CD000EE260150ED22D950080FE66E000EDA20E4
:102CE000E66E26D82BEC17F0E552E552E552E55298
:102CF000080EDBCF00F0090EDBCF01F00A0EDBCFB0
:102D000002F00B0EDBCF03F000C021F001C022F077
:102D100002C023F003C024F00C0EE15C02E2E16A81
:102D2000E552E16EE552E5CFDAFFE7CFD9FF1200B9
:0A2D3000D9CFE6FFDACFE6FF12006C
:062D3A00D9CFE6FFDACF5D
:102D4000E6FFE1CFD9FFE2CFDAFFE6520068016883
:102D50007F0E026E036AD950FA0FE96EFF0EDA2079
:102D6000EA6EEE500016EE500116EE500216EE50CE
:102D700003166AD800C0EEFF01C0EEFF02C0EEFFEE
:102D800003C0EEFFFD0EDB50800B02E0010E01D010
:102D9000000EE66E59D8060EE926000EEA22E5522C
:102DA000E750EF6EFC0EDBCF00F0FD0EDBCF01F045
:102DB000D89000360136FC0E00C0DBFFFD0E01C0CE
:102DC000DBFFDB50E66E40D8040EE926000EEA2257
:102DD000E552E750EE6EED6AFD0EDB50006E016AC3
:102DE000FF0E001818E1015016E12ED8EECF00F0CA
:102DF000EECF01F0EECF02F0EFCF03F00050011064
:102E00000210031006E0210E00019B6F9C6B800EE8
:102E10000BD0040E09D0FD0EDB5008E115D8EE6A88
:102E2000EE6AEE6AEE6A010EDF6E06D0020EDF6E0B
:102E30000BD8EE52EE52EE8EDF50E552E552E5CF62
:102E4000DAFFE7CFD9FF1200F80EDBCFE9FFF90E6A
:062E5000DBCFEAFF1200D7
:0A2E5600D9CFE6FFDACFE6FFE1CFA7
:102E6000D9FFE2CFDAFF5BD8013411E20050FE084F
:102E7000000E01540CE276D805E06CD8800EEE6EA0
:102E8000EE6847D067D8800EEE6E7F0E0ED047D822
:102E9000D890015004E6010E005C000E01580BE2D0
:102EA00061D805E057D8EE6A800EEE6E32D052D867
:102EB000EE6AEE6A2ED047D8EECF00F0EECF01F0EA
:102EC000EECF02F0EFCF03F032D800C0EEFF01C02A
:102ED000EEFF02C0EEFF03C0EEFF21D80050010B51
:102EE00005E025D8020E3AD8EF8E04D020D8020E85
:102EF00035D8EF9E14D8D8900132003218D8030E7E
:102F00002DD800C0EFFF1AD804E011D8030E26D840
:102F1000EF8EE552E5CFDAFFE7CFD9FF120013D8E5
:102F2000040E1CD8EECF00F0EFCF01F01200FA0E25
:102F3000DBCFE9FFFB0EDBCFEAFF120004D8060E61
:102F40000DD8EF501200FC0EDBCFE9FFFD0EDBCFFA
:102F5000EAFF1200ECDFEE6AEE6A1200E926000ECC
:102F6000EA221200220E00019B6F9C6B9EEF17F06D
:102F70001E0EF66E100EF76E000EF86E00010900C0
:102F8000F550966F0900F550976F03E1966701D0F1
:102F90003DD00900F550916F0900F550926F09007E
:102FA000F550936F09000900F550E96E0900F550DE
:102FB000EA6E090009000900F550946F0900F55008
:102FC000956F09000900F6CF98F0F7CF99F0F8CF88
:102FD0009AF091C0F6FF92C0F7FF93C0F8FF00018E
:102FE000945302E1955307E00900F550EE6E940703
:102FF000F8E29507F9D798C0F6FF99C0F7FF9AC095
:0E300000F8FF00019607000E975BBFD7120085
:02300E00D9CF18
:10301000E6FFDACFE6FFE1CFD9FFE2CFDAFFE652F3
:10302000E652D950FD0F006EFF0EDA2000C0DEFF21
:10303000DD6EDECFE9FFDDCFEAFFEF9EFA0EDBCFDC
:1030400000F0FB0EDBCF01F0FC0EDBCF02F0FD0E3B
:10305000DBCF03F000C021F001C022F002C023F05A
:1030600003C024F0E552E552E552E5CFDAFFE7CFA1
:04307000D9FF120072
:0C307400D9CFE6FFDACFE6FFE1CFD9FFAD
:10308000E2CFDAFF010EE66ED950FA0FE96EFF0EBD
:10309000DA20EA6EEECFE6FFEECFE6FFEECFE6FFF8
:1030A000EFCFE6FFB7EC0FF0006E050EE15C02E239
:1030B000E16AE552E16E0050E552E5CFDAFFE7CF75
:0430C000D9FF120022
:0C30C400206A1F6A1E6A1D6A200EE76E5B
:1030D000D89021362236233624361D361E361F362A
:1030E000203626501D5C27501E5828501F58295046
:1030F000205809E326501D5E27501E5A28501F5A9B
:0C3100002950205A212AE72EE4D71200A3
:04310C00D9CFE6FF32
:10311000DACFE6FFE1CFD9FFE2CFDAFFFD0EDB50D9
:10312000360BB16EB36AB26AA192FD0EDBAE02D06D
:10313000A08201D0A092DBA002D0B18E01D0B19EBE
:0E314000B180E552E5CFDAFFE7CFD9FF1200EC
:02314E00D9CFD7
:10315000E6FFDACFE6FFE1CFD9FFE2CFDAFFF09268
:10316000FD0EDBA202D0F18801D0F1989484DBAC93
:1031700002D0F08E01D0F09EDBAE02D0F08801D0FC
:0E318000F098E552E5CFDAFFE7CFD9FF120055
:02318E00D9CF97
:10319000E6FFDACFE6FFE1CFD9FFE2CFDAFFF0902A
:1031A000FD0EDBA202D0F18A01D0F19A9482DBAC51
:1031B00002D0F08C01D0F09CDBAE02D0F08601D0C2
:0E31C000F096E552E5CFDAFFE7CFD9FF120017
:0231CE00D9CF57
:1031D000E6FFDACFE6FFE1CFD9FFE2CFDAFFE65232
:1031E0008150DF6EFD0EDBA002D0F18E01D0F19E8A
:1031F000DBAE02D0F28601D0F296E552E552E5CF81
:08320000DAFFE7CFD9FF12004D
:08320800D9CFE6FFDACFE6FFA3
:10321000E1CFD9FFE2CFDAFFE652E652FC0EDBCF78
:10322000DEFFDBCFDDFF010EDB50B36EDF50B26E91
:10323000E552E552E552E5CFDAFFE7CFD9FF1200BC
:10324000D9CFE6FFDACFE6FFE1CFD9FFE2CFDAFF51
:10325000E652E652FC0EDBCFDEFFDBCFDDFF010ED8
:10326000DB50D76EDF50D66EE552E552E552E5CF22
:08327000DAFFE7CFD9FF1200DD
:08327800D9CFE6FFDACFE6FF33
:10328000E1CFD9FFE2CFDAFFFD0EDB507F0BD56E29
:10329000D76AD66AF294FD0EDBAE02D0F28A01D074
:1032A000F29AD58EE552E5CFDAFFE7CFD9FF1200CB
:1032B000D9CFE6FFDACFE6FFE1CFD9FFE2CFDAFFE1
:1032C000FD0EDB50FB0BCA6ECC6A9E92FD0EDBAE90
:1032D00002D09D8201D09D92CA84E552E5CFDAFFEB
:0632E000E7CFD9FF120048
:0A32E600FF0EE350366EEF0E01D02C
:1032F000F30EE76EE72E7AEF19F00C0E356EE76AE3
:10330000E72E80EF19F0352E7FEF19F0362E78EF8B
:0433100019F012009E
:0C331400D9CFE6FFDACFE6FFE1CFD9FF0A
:10332000E2CFDAFFC30EC214006EFD0EDB407F0B4E
:103330003C0B0010C26EE552E5CFDAFFE7CFD9FFB4
:02334000120079
:0E334200206A1F6A100EE76ED89023362436DC
:103350001F36203628501F5C2950205805E328507E
:0E3360001F5E2950205A232AE72EF0D71200B4
:02336E00000E4F
:10337000F36E00EE00F0030E01D81200EA6002D0F6
:0E338000EE6AFCD7F350E9601200EE6AFCD74B
:02338E0011EE3E
:1033900000F021EE00F0F86A2C9CB8EC17F003EC7A
:0A33A00008F0ADEC14F0FBD71200AA
:0633AA00FF0EE350366E39
:1033B0001B0E00D001D0200EE76EE72EFED7362E72
:0633C000FAD700D0120054
:0A33C600206A080EE76ED890243646
:1033D00020362950205C02E3206E242AE72EF7D7FE
:0233E0001200D9
:0E33E200FF0EE350E84E1200000000D000D0B5
:0833F00000D0E82EFAD712000C
:0833F800C450036E026AC350C9
:0A3400000210F36E03C0F4FF120087
:06340A00CD909D90120020
:04341000C282120062
:0C341400000000000000000000000000AC
:1034200000000100000000E80300000000000000B0
:0334300000000099
:0D343300F40147464544434241400000007B
:05344000001F1F1F1F0B
:00000001FF
